:020000040800F2
:1000000000500020D5060008650600086B060008B1
:1000100071060008770600087D0600080000000051
:10002000000000000000000000000000830600083F
:100030008F060008000000009B060008A7060008C5
:100040001D0700081D0700081D0700081D07000800
:100050001D0700081D0700081D0700081D070008F0
:100060001D0700081D0700081D0700081D070008E0
:100070001D0700081D0700081D0700081D070008D0
:100080001D0700081D0700081D0700081D070008C0
:100090001D0700081D0700081D0700081D070008B0
:1000A0001D0700081D0700081D0700081D070008A0
:1000B0001D0700081D0700081D0700081D07000890
:1000C0001D0700081D0700081D0700081D07000880
:1000D0001D0700081D0700081D070008B5060008D9
:1000E0001D0700081D0700081D070008000000008C
:1000F0000000000000000000000000000000000000
:0C01000000000000000000005FF808F1A3
:10010C0010B5054C237833B9044B13B10448AFF345
:10011C0000800123237010BD580000200000000057
:10012C00FC3D000808B5034B1BB103490348AFF372
:10013C00008008BD000000005C000020FC3D0008B1
:10014C0080B500AF00F0E6FA00F014F800F0F6F815
:10015C0000F0CAF800F084F800F09CF800F052F8B7
:10016C0002F0D2FF02F0E2FF014801F067FBF9E771
:10017C00C800002080B590B000AF07F1180328220A
:10018C000021184603F02CFE3B1D00221A605A6019
:10019C009A60DA601A610923BB614FF48033FB610A
:1001AC0000233B620123BB6201233B6302237B637D
:1001BC004FF48033BB634FF4E013FB6307F1180378
:1001CC00184601F04BFB0346002B01D000F040F920
:1001DC000F237B600223BB608023FB604FF48063A2
:1001EC003B6100237B613B1D0221184601F0B8FDE9
:1001FC000346002B01D000F02BF900BF4037BD4661
:10020C0080BD000080B500AF124B134A1A60114B31
:10021C00124A5A600F4B00229A600E4B0022DA6091
:10022C000C4B4FF480421A610A4B00225A61094B65
:10023C0000229A61074B0022DA61064B00221A62F7
:10024C00044800F05FFE0346002B01D000F000F9DB
:10025C0000BF80BD7400002000540040A086010047
:10026C0080B500AF094B0A4A1A60084B01225A604C
:10027C00064B40F6C3129A60044801F09DFA0346FF
:10028C00002B01D000F0E4F800BF80BDC8000020B6
:10029C000030004080B500AF114B124A1A60104B71
:1002AC004FF4E1325A600E4B00229A600C4B002244
:1002BC00DA600B4B00221A61094B0C225A61084B75
:1002CC0000229A61064B0022DA61054801F0E0FE3B
:1002DC000346002B01D000F0BBF800BF80BD00BF6F
:1002EC00D40000200044004080B500AF114B124AEE
:1002FC001A60104B4FF4E1325A600E4B00229A6098
:10030C000C4B0022DA600B4B00221A61094B0C22B9
:10031C005A61084B00229A61064B0022DA610548AB
:10032C0001F0B6FE0346002B01D000F091F800BF9F
:10033C0080BD00BF180100200048004080B588B087
:10034C0000AF07F1100300221A605A609A60DA605D
:10035C003B4B9B693A4A43F010039361384B9B69C2
:10036C0003F01003FB60FB68354B9B69344A43F088
:10037C0020039361324B9B6903F02003BB60BB6885
:10038C002F4B9B692E4A43F0040393612C4B9B69C2
:10039C0003F004037B607B68294B9B69284A43F07C
:1003AC0008039361264B9B6903F008033B603B6891
:1003BC0000224FF40051234800F08BFD00224FF433
:1003CC00E041214800F085FD4FF400533B610123CF
:1003DC007B610023BB610223FB6107F1100319460B
:1003EC00184800F0DBFBF0233B6100237B61012309
:1003FC00BB6107F110031946144800F0CFFB48F21B
:10040C0003033B6100237B610123BB6107F11003F4
:10041C0019460D4800F0C2FB4FF4E0433B61012349
:10042C007B610023BB610123FB6107F110031946BB
:10043C00054800F0B3FB00BF2037BD4680BD00BFB0
:10044C000010024000100140000C01400008014067
:10045C0080B400AF72B600BFFEE7000080B485B078
:10046C0000AF154B9B69144A43F001039361124B87
:10047C009B6903F00103BB60BB680F4BDB690E4A41
:10048C0043F08053D3610C4BDB6903F080537B60EA
:10049C007B680A4B5B68FB60FB6823F0E063FB60E6
:1004AC00FB6843F00073FB60044AFB68536000BFB9
:1004BC001437BD4680BC704700100240000001405C
:1004CC0080B588B000AF786007F1100300221A6085
:1004DC005A609A60DA607B681B68154A934223D194
:1004EC00144B9B69134A43F008039361114B9B69AE
:1004FC0003F00803FB60FB68C0233B6112237B61A4
:10050C000323FB6107F1100319460B4800F046FB6F
:10051C00084BDB69074A43F40013D361054BDB69D5
:10052C0003F40013BB60BB6800BF2037BD4680BD21
:10053C000054004000100240000C014080B58AB00D
:10054C0000AF786007F1180300221A605A609A60B5
:10055C00DA607B681B683B4A934230D13A4BDB69CB
:10056C00394A43F40033D361374BDB6903F400336E
:10057C007B617B69344B9B69334A43F00403936181
:10058C00314B9B6903F004033B613B690423BB6162
:10059C000223FB6103237B6207F1180319462B48E6
:1005AC0000F0FCFA0823BB610023FB6100233B62D3
:1005BC0007F118031946254800F0F0FA3EE07B6875
:1005CC001B68234A934239D11F4BDB691E4A43F403
:1005DC008023D3611C4BDB6903F48023FB60FB6835
:1005EC00194B9B69184A43F008039361164B9B699E
:1005FC0003F00803BB60BB684FF48063BB6102234C
:10060C00FB6103237B6207F118031946114800F0C4
:10061C00C5FA4FF40063BB610023FB6100233B620E
:10062C0007F1180319460B4800F0B8FA0022002114
:10063C00272000F0CCF9272000F0E5F900BF28377F
:10064C00BD4680BD0044004000100240000801403F
:10065C0000480040000C014080B400AFFEE780B4BD
:10066C0000AFFEE780B400AFFEE780B400AFFEE75A
:10067C0080B400AFFEE780B400AF00BFBD4680BCC5
:10068C00704780B400AF00BFBD4680BC704780B4DB
:10069C0000AF00BFBD4680BC704780B500AF00F016
:1006AC007FF800BF80BD000080B500AF024801F0AC
:1006BC00FFFD00BF80BD00BF1801002080B400AF5B
:1006CC0000BFBD4680BC70470C480D490D4A002345
:1006DC0002E0D458C4500433C4188C42F9D30A4AEB
:1006EC000A4C002301E013600432A242FBD3FFF753
:1006FC00E5FF03F051FBFFF723FD704700000020DE
:10070C0058000020D866000858000020B0060020D1
:10071C00FEE7000080B500AF084B1B68074A43F0AA
:10072C0010031360032000F047F90F2000F008F8C5
:10073C00FFF794FE0023184680BD00BF0020024046
:10074C0080B582B000AF7860124B1A68124B1B78E0
:10075C0019464FF47A73B3FBF1F3B2FBF3F318467B
:10076C0000F05FF90346002B01D001230EE07B68FB
:10077C000F2B0AD8002279684FF0FF3000F027F9D0
:10078C00064A7B681360002300E0012318460837F3
:10079C00BD4680BD000000200800002004000020A1
:1007AC0080B400AF054B1B781A46054B1B681344ED
:1007BC00034A136000BFBD4680BC70470800002090
:1007CC005C01002080B400AF024B1B681846BD468C
:1007DC0080BC70475C01002080B584B000AF7860AD
:1007EC00FFF7F0FFB8607B68FB60FB68B3F1FF3F7D
:1007FC0005D00A4B1B781A46FB681344FB6000BFFC
:10080C00FFF7E0FF0246BB68D31AFA689A42F7D8A2
:10081C0000BF00BF1037BD4680BD00BF08000020E0
:10082C0080B485B000AF78607B6803F00703FB6091
:10083C000C4BDB68BB60BA684FF6FF031340BB6020
:10084C00FB681A02BB68134343F0BF6343F40033E5
:10085C00BB60044ABB68D36000BF1437BD4680BC84
:10086C00704700BF00ED00E080B400AF044BDB68C4
:10087C001B0A03F007031846BD4680BC704700BF37
:10088C0000ED00E080B483B000AF0346FB7197F934
:10089C000730002B0BDBFB7903F01F02064997F99D
:1008AC0007305B09012000FA02F241F8232000BF57
:1008BC000C37BD4680BC704700E100E080B483B0CB
:1008CC0000AF03463960FB7197F90730002B0ADB48
:1008DC003B68DAB20C4997F907301201D2B20B44DB
:1008EC0083F800230AE03B68DAB20849FB7903F08D
:1008FC000F03043B1201D2B20B441A7600BF0C3723
:10090C00BD4680BC704700BF00E100E000ED00E098
:10091C0080B489B000AFF860B9607A60FB6803F00E
:10092C000703FB61FB69C3F10703042B28BF0423F6
:10093C00BB61FB690433062B02D9FB69033B00E066
:10094C0000237B614FF0FF32BB6902FA03F3DA43F9
:10095C00BB681A407B699A404FF0FF317B6901FA02
:10096C0003F3D9437B680B40134318462437BD4629
:10097C0080BC704780B582B000AF78607B68013B6B
:10098C00B3F1807F01D301230FE00A4A7B68013B5E
:10099C0053600F214FF0FF30FFF790FF054B002203
:1009AC009A60044B07221A60002318460837BD468C
:1009BC0080BD00BF10E000E080B582B000AF786071
:1009CC007868FFF72DFF00BF0837BD4680BD80B5A6
:1009DC0086B000AF0346B9607A60FB7300237B617D
:1009EC00FFF742FF78617A68B9687869FFF790FF82
:1009FC00024697F90F3011461846FFF75FFF00BF0C
:100A0C001837BD4680BD80B582B000AF0346FB7180
:100A1C0097F907301846FFF735FF00BF0837BD467A
:100A2C0080BD80B582B000AF78607868FFF7A2FF18
:100A3C00034618460837BD4680BD80B485B000AF6C
:100A4C0078600023FB737B6893F82130022B08D06D
:100A5C007B6804229A637B68002283F820200123A0
:100A6C0020E07B681B681A687B681B6822F00E020A
:100A7C001A607B681B681A687B681B6822F001028D
:100A8C001A607B681A6C7B68DB6B012101FA02F23D
:100A9C005A607B68012283F821207B68002283F84E
:100AAC002020FB7B18461437BD4680BC70470000E5
:100ABC0080B584B000AF78600023FB737B6893F83B
:100ACC002130022B05D07B6804229A630123FB732F
:100ADC0051E07B681B681A687B681B6822F00E0269
:100AEC001A607B681B681A687B681B6822F001021D
:100AFC001A607B681B68224A934229D07B681B686A
:100B0C00204A934222D07B681B681F4A93421AD01A
:100B1C007B681B681D4A934212D07B681B681C4A79
:100B2C0093420AD07B681B681A4A934202D14FF455
:100B3C0080130EE04FF080730BE04FF4803308E02D
:100B4C004FF4805305E04FF4807302E0102300E073
:100B5C000123114A53607B68012283F821207B68B2
:100B6C00002283F820207B685B6B002B03D07B6812
:100B7C005B6B78689847FB7B18461037BD4680BD89
:100B8C00080002401C0002403000024044000240B9
:100B9C00580002406C0002400000024080B48BB050
:100BAC0000AF7860396000237B6200233B6269E10F
:100BBC0001227B6A02FA03F3FB613B681B68FA694A
:100BCC001340BB61BA69FB699A4240F058813B689B
:100BDC005B689A4A93425ED0984A934275D8984A79
:100BEC00934258D0964A93426FD8964A934252D029
:100BFC00944A934269D8944A93424CD0924A934275
:100C0C0063D8924A934246D0904A93425DD8122BB5
:100C1C002AD8122B59D801A252F823F0A30C0008A1
:100C2C007D0C00088F0C0008D10C0008D70C0008B4
:100C3C00D70C0008D70C0008D70C0008D70C0008FC
:100C4C00D70C0008D70C0008D70C0008D70C0008EC
:100C5C00D70C0008D70C0008D70C0008D70C0008DC
:100C6C00850C0008990C0008794A934213D02CE0AB
:100C7C003B68DB683B6229E03B68DB6804333B6222
:100C8C0024E03B68DB6808333B621FE03B68DB68B1
:100C9C000C333B621AE03B689B68002B02D10423A7
:100CAC003B6213E03B689B68012B05D108233B6238
:100CBC007B68FA691A6109E008233B627B68FA6970
:100CCC005A6103E000233B6200E000BFBB69FF2BCD
:100CDC0001D87B6801E07B6804337B61BB69FF2B27
:100CEC0002D87B6A9B0002E07B6A083B9B003B615D
:100CFC007B691A680F213B6901FA03F3DB431A4045
:100D0C00396A3B6901FA03F31A437B691A603B6841
:100D1C005B6803F08053002B00F0B1804D4B9B6956
:100D2C004C4A43F0010393614A4B9B6903F0010366
:100D3C00BB60BB68484A7B6A9B08023352F823307D
:100D4C00FB607B6A03F003039B000F2202FA03F3A0
:100D5C00DB43FA681340FB607B68404A934213D034
:100D6C007B683F4A93420DD07B683E4A934207D042
:100D7C007B683D4A934201D1032306E0042304E03F
:100D8C00022302E0012300E000237A6A02F003024E
:100D9C0092009340FA681343FB602F497B6A9B08CF
:100DAC000233FA6841F823203B685B6803F4803314
:100DBC00002B06D02D4B1A682C49BB6913430B60D2
:100DCC0006E02A4B1A68BB69DB43284913400B60C9
:100DDC003B685B6803F40033002B06D0234B5A6846
:100DEC002249BB6913434B6006E0204B5A68BB6930
:100DFC00DB431E4913404B603B685B6803F4801374
:100E0C00002B06D0194B9A681849BB6913438B60A9
:100E1C0006E0164B9A68BB69DB43144913408B60A0
:100E2C003B685B6803F40013002B21D00F4BDA688E
:100E3C000E49BB691343CB6021E000BF00003210A8
:100E4C0000003110000022100000211000001210D0
:100E5C000000111000100240000001400008014089
:100E6C00000C01400010014000140140000401403E
:100E7C000B4BDA68BB69DB4309491340CB607B6AD7
:100E8C0001337B623B681A687B6A22FA03F3002BFE
:100E9C007FF48EAE00BF00BF2C37BD4680BC7047C0
:100EAC000004014080B485B000AF78600B467B80B5
:100EBC007B689A687B881340002B02D00123FB735C
:100ECC0001E00023FB73FB7B18461437BD4680BC46
:100EDC00704780B483B000AF78600B467B801346BC
:100EEC007B707B78002B03D07A887B681A6103E0D7
:100EFC007B881A047B681A6100BF0C37BD4680BC26
:100F0C007047000080B584B000AF78607B68002B20
:100F1C0001D101232BE17B6893F83D30DBB2002B30
:100F2C0006D17B68002283F83C207868FFF7C8FA6A
:100F3C007B68242283F83D207B681B681A687B68D9
:100F4C001B6822F001021A607B681B681A687B68B8
:100F5C001B6842F400421A607B681B681A687B6845
:100F6C001B6822F400421A6001F04CF8F8607B68B0
:100F7C005B68814A934207D8FB68804A934294BFCE
:100F8C0001230023DBB206E0FB687D4A934294BF49
:100F9C0001230023DBB2002B01D00123E7E0FB6827
:100FAC00784AA2FB03239B0CBB607B681B685B68C5
:100FBC0023F03F017B681B68BA680A435A607B6860
:100FCC001B681B6A23F03F017B685B686A4A93428B
:100FDC0002D8BB68013309E0BB684FF4967202FB80
:100FEC0003F3694AA2FB03239B0901337A68126855
:100FFC000B4313627B681B68DB6923F44F4222F0BE
:10100C00FF027B685B685C498B4219D8FB68591EF0
:10101C007B685B685B00B1FBF3F3591C40F6FC7317
:10102C000B40002B0AD0FB68591E7B685B685B0089
:10103C00B1FBF3F30133C3F30B0351E004234FE093
:10104C007B689B68002B11D1FB68581E7B68596824
:10105C000B465B000B44B0FBF3F30133C3F30B0300
:10106C00002B0CBF01230023DBB212E0FB68581EDF
:10107C007B6859680B469B000B4499000B44B0FBF2
:10108C00F3F30133C3F30B03002B0CBF0123002339
:10109C00DBB2002B01D0012322E07B689B68002B84
:1010AC000ED1FB68581E7B6859680B465B000B44DD
:1010BC00B0FBF3F30133C3F30B0343F400430FE032
:1010CC00FB68581E7B6859680B469B000B449900C3
:1010DC000B44B0FBF3F30133C3F30B0343F4404372
:1010EC00796809681343CB617B681B681B6823F024
:1010FC00C0017B68DA697B681B6A1A437B681B68D2
:10110C000A431A607B681B689B6823F4034323F033
:10111C00FF037A6811697A68D26811437A68126899
:10112C000B4393607B681B68DB6823F0FF017B68D3
:10113C005A697B689B691A437B681B680A43DA60AF
:10114C007B681B681A687B681B6842F001021A6096
:10115C007B6800221A647B68202283F83D207B6820
:10116C0000221A637B68002283F83E200023184675
:10117C001037BD4680BD00BFA08601007F841E00D5
:10118C00FF083D0083DE1B43D34D621080B588B051
:10119C0002AFF860084611461A4603467B810B469F
:1011AC003B811346FB80FFF70DFB7861FB6893F8DE
:1011BC003D30DBB2202B40F0D9807B6900931923A2
:1011CC0001226D49F86800F071F90346002B01D03B
:1011DC000223CCE0FB6893F83C30012B01D10223B5
:1011EC00C5E0FB68012283F83C20FB681B681B6888
:1011FC0003F00103012B07D0FB681B681A68FB681E
:10120C001B6842F001021A60FB681B681A68FB68D5
:10121C001B6822F400621A60FB68212283F83D20CF
:10122C00FB68402283F83E20FB6800221A64FB68AE
:10123C003A6A5A62FB68BA8C5A85FB685B8D9AB223
:10124C00FB681A85FB684D4ADA62F8883A89798915
:10125C007B690193BB6A00930346F86800F090F831
:10126C000346002B52D0012381E07A69B96AF868F1
:10127C0000F0F2F90346002B0DD0FB681B6C042B1D
:10128C0007D1FB681B681A68FB681B6842F4007284
:10129C001A6001236BE0FB685B6A1A78FB681B68B9
:1012AC001A61FB685B6A5A1CFB685A62FB681B8DEF
:1012BC00013B9AB2FB681A85FB685B8D9BB2013BC4
:1012CC009AB2FB685A85FB681B685B6903F00403E0
:1012DC00042B1BD1FB681B8D002B17D0FB685B6AA2
:1012EC001A78FB681B681A61FB685B6A5A1CFB68FE
:1012FC005A62FB681B8D013B9AB2FB681A85FB682E
:10130C005B8D9BB2013B9AB2FB685A85FB681B8DC7
:10131C00002BAAD17A69B96AF86800F0DEF90346A5
:10132C00002B0DD0FB681B6C042B07D1FB681B68D2
:10133C001A68FB681B6842F400721A60012316E0FD
:10134C00FB681B681A68FB681B6842F400721A6021
:10135C00FB68202283F83D20FB68002283F83E20A6
:10136C00FB68002283F83C20002300E0022318468F
:10137C001837BD4680BD00BF020010000000FFFF03
:10138C0080B588B002AFF860084611461A4603468D
:10139C007B810B463B811346FB80FB681B681A68FC
:1013AC00FB681B6842F480721A607B6A00933B6A8C
:1013BC0000224FF00111F86800F078F80346002B7A
:1013CC000DD0FB681B681B6803F48073B3F5807F3A
:1013DC0003D1FB684FF400721A6403235FE07B892E
:1013EC00DBB21A46FB681B6802F0FE021A617B6ACC
:1013FC003A6A2D49F86800F0B0F80346002B01D08A
:10140C0001234CE000237B61FB681B685B697B61FB
:10141C00FB681B689B697B617B697A6A396AF8682F
:10142C0000F01AF90346002B0DD0FB681B6C042B43
:10143C0007D1FB681B681A68FB681B6842F40072D2
:10144C001A6001232BE0FB88012B05D13B89DAB212
:10145C00FB681B681A6121E03B891B0A9BB2DAB25C
:10146C00FB681B681A617A6A396AF86800F0F4F84C
:10147C000346002B0DD0FB681B6C042B07D1FB68BB
:10148C001B681A68FB681B6842F400721A6001231F
:10149C0005E03B89DAB2FB681B681A610023184629
:1014AC001837BD4680BD00BF0200010080B584B076
:1014BC0000AFF860B9603B601346FB7125E03B68F8
:1014CC00B3F1FF3F21D0FFF77DF90246BB69D31A78
:1014DC003A689A4202D33B68002B16D1FB68002273
:1014EC001A63FB68202283F83D20FB68002283F8F6
:1014FC003E20FB681B6C43F02002FB681A64FB68FF
:10150C00002283F83C20012323E0BB681B0CDBB2D8
:10151C00012B0DD1FB681B685B69DA43BB68134078
:10152C009BB2002B0CBF01230023DBB21A460CE04C
:10153C00FB681B689B69DA43BB6813409BB2002BAA
:10154C000CBF01230023DBB21A46FB799A42B6D0BA
:10155C00002318461037BD4680BD80B584B000AF5F
:10156C00F860B9607A603B6051E0FB681B685B69AE
:10157C0003F48063B3F5806F23D1FB681B681A6892
:10158C00FB681B6842F400721A60FB681B686FF4FE
:10159C0080625A61FB6800221A63FB68202283F880
:1015AC003D20FB68002283F83E20FB681B6C43F057
:1015BC000402FB681A64FB68002283F83C200123B8
:1015CC0046E07B68B3F1FF3F21D0FFF7FBF8024602
:1015DC003B68D31A7A689A4202D37B68002B16D1E7
:1015EC00FB6800221A63FB68202283F83D20FB680D
:1015FC00002283F83E20FB681B6C43F02002FB6842
:10160C001A64FB68002283F83C20012320E0BB68AD
:10161C001B0CDBB2012B0CD1FB681B685B69DA433A
:10162C00BB6813409BB2002B14BF01230023DBB219
:10163C000BE0FB681B689B69DA43BB6813409BB2E9
:10164C00002B14BF01230023DBB2002B8DD1002310
:10165C0018461037BD4680BD80B584B000AFF86029
:10166C00B9607A602DE0F86800F078F80346002B3A
:10167C0001D001232DE0BB68B3F1FF3F21D0FFF770
:10168C00A1F802467B68D31ABA689A4202D3BB68A7
:10169C00002B16D1FB6800221A63FB68202283F80A
:1016AC003D20FB68002283F83E20FB681B6C43F056
:1016BC002002FB681A64FB68002283F83C2001239B
:1016CC0007E0FB681B685B6903F08003802BCAD1C1
:1016DC00002318461037BD4680BD80B584B000AFDE
:1016EC00F860B9607A602DE0F86800F037F80346CE
:1016FC00002B01D001232DE0BB68B3F1FF3F21D0BB
:10170C00FFF760F802467B68D31ABA689A4202D394
:10171C00BB68002B16D1FB6800221A63FB682022E1
:10172C0083F83D20FB68002283F83E20FB681B6C8D
:10173C0043F02002FB681A64FB68002283F83C200B
:10174C00012307E0FB681B685B6903F00403042BAF
:10175C00CAD1002318461037BD4680BD80B483B073
:10176C0000AF78607B681B685B6903F48063B3F53A
:10177C00806F1BD17B681B686FF480625A617B6839
:10178C0000221A637B68202283F83D207B680022AC
:10179C0083F83E207B681B6C43F004027B681A6460
:1017AC007B68002283F83C20012300E000231846CC
:1017BC000C37BD4680BC704780B584B000AF7860F4
:1017CC007B68002B01D1012334E07B681B684CF64D
:1017DC00CC421A607B681B6845F255521A607B68D4
:1017EC001B687A6852685A607B681B687A689268D2
:1017FC009A60FEF7E7FFF8600FE0FEF7E3FF0246A2
:10180C00FB68D31A272B08D97B681B68DB6803F0AD
:10181C000303002B01D003230CE07B681B68DB68FF
:10182C0003F00303002BE8D17B681B684AF6AA225D
:10183C001A60002318461037BD4680BD80B483B0B3
:10184C0000AF78607B681B684AF6AA221A600023F6
:10185C0018460C37BD4680BC7047000080B586B07A
:10186C0000AF78607B68002B01D1012372E27B68AA
:10187C001B6803F00103002B00F08780924B5B6820
:10188C0003F00C03042B0CD08F4B5B6803F00C03A0
:10189C00082B12D18C4B5B6803F48033B3F5803F7B
:1018AC000BD1894B1B6803F40033002B6CD07B6885
:1018BC005B68002B68D101234CE27B685B68B3F555
:1018CC00803F06D1804B1B687F4A43F48033136002
:1018DC002EE07B685B68002B0CD17B4B1B687A4A33
:1018EC0023F480331360784B1B68774A23F48023EE
:1018FC0013601DE07B685B68B3F5A02F0CD1724BB5
:10190C001B68714A43F4802313606F4B1B686E4A4B
:10191C0043F4803313600BE06B4B1B686A4A23F46F
:10192C0080331360684B1B68674A23F48023136071
:10193C007B685B68002B13D0FEF744FF386108E02E
:10194C00FEF740FF02463B69D31A642B01D90323EF
:10195C0000E25D4B1B6803F40033002BF0D014E065
:10196C00FEF730FF386108E0FEF72CFF02463B69BA
:10197C00D31A642B01D90323ECE1534B1B6803F4FA
:10198C000033002BF0D100E000BF7B681B6803F034
:10199C000203002B63D04C4B5B6803F00C03002B51
:1019AC000BD0494B5B6803F00C03082B1CD1464B46
:1019BC005B6803F48033002B16D1434B1B6803F098
:1019CC000203002B05D07B681B69012B01D001237E
:1019DC00C0E13D4B1B6823F0F8027B685B69DB00C0
:1019EC00394913430B603AE07B681B69002B20D00C
:1019FC00364B01221A60FEF7E5FE386108E0FEF76F
:101A0C00E1FE02463B69D31A022B01D90323A1E163
:101A1C002D4B1B6803F00203002BF0D02A4B1B68E4
:101A2C0023F0F8027B685B69DB00274913430B60EA
:101A3C0015E0264B00221A60FEF7C4FE386108E060
:101A4C00FEF7C0FE02463B69D31A022B01D90323D1
:101A5C0080E11D4B1B6803F00203002BF0D17B6867
:101A6C001B6803F00803002B3AD07B689B69002BA2
:101A7C0019D0174B01221A60FEF7A4FE386108E05A
:101A8C00FEF7A0FE02463B69D31A022B01D90323B1
:101A9C0060E10D4B5B6A03F00203002BF0D00120D8
:101AAC0000F0D8FA1CE00A4B00221A60FEF78AFEFE
:101ABC0038610FE0FEF786FE02463B69D31A022B13
:101ACC0008D9032346E100BF001002400000424247
:101ADC0080044242924B5B6A03F00203002BE9D173
:101AEC007B681B6803F00403002B00F0A680002326
:101AFC00FB758B4BDB6903F08053002B0DD1884BAE
:101B0C00DB69874A43F08053D361854BDB6903F073
:101B1C008053BB60BB680123FB75824B1B6803F4CD
:101B2C008073002B18D17F4B1B687E4A43F4807363
:101B3C001360FEF747FE386108E0FEF743FE0246ED
:101B4C003B69D31A642B01D9032303E1754B1B6842
:101B5C0003F48073002BF0D07B68DB68012B06D17B
:101B6C006F4B1B6A6E4A43F0010313622DE07B68D6
:101B7C00DB68002B0CD16A4B1B6A694A23F001030A
:101B8C001362674B1B6A664A23F0040313621CE062
:101B9C007B68DB68052B0CD1614B1B6A604A43F0F8
:101BAC00040313625E4B1B6A5D4A43F0010313622C
:101BBC000BE05B4B1B6A5A4A23F001031362584B30
:101BCC001B6A574A23F0040313627B68DB68002B03
:101BDC0015D0FEF7F7FD38610AE0FEF7F3FD02467B
:101BEC003B69D31A41F28832934201D90323B1E005
:101BFC004B4B1B6A03F00203002BEED014E0FEF7F4
:101C0C00E1FD38610AE0FEF7DDFD02463B69D31ABF
:101C1C0041F28832934201D903239BE0404B1B6A6B
:101C2C0003F00203002BEED1FB7D012B05D13C4BC5
:101C3C00DB693B4A23F08053D3617B68DB69002B63
:101C4C0000F08780364B5B6803F00C03082B61D0E7
:101C5C007B68DB69022B46D1334B00221A60FEF7FE
:101C6C00B1FD386108E0FEF7ADFD02463B69D31AC1
:101C7C00022B01D903236DE0294B1B6803F0007381
:101C8C00002BF0D17B681B6AB3F5803F08D1244B45
:101C9C005B6823F400327B689B68214913434B60DB
:101CAC001F4B5B6823F474127B68196A7B685B6A50
:101CBC000B431B4913434B601B4B01221A60FEF76D
:101CCC0081FD386108E0FEF77DFD02463B69D31AC1
:101CDC00022B01D903233DE0114B1B6803F0007369
:101CEC00002BF0D035E0104B00221A60FEF76AFD95
:101CFC00386108E0FEF766FD02463B69D31A022BF9
:101D0C0001D9032326E0064B1B6803F00073002B5C
:101D1C00F0D11EE07B68DB69012B07D1012319E0B0
:101D2C000010024000700040600042420B4B5B68A8
:101D3C00FB60FB6803F480327B681B6A9A4206D115
:101D4C00FB6803F470127B685B6A9A4201D0012332
:101D5C0000E0002318461837BD4680BD0010024035
:101D6C0080B584B000AF786039607B68002B01D1FE
:101D7C000123D0E06A4B1B6803F007033A689A42D0
:101D8C0010D9674B1B6823F0070265493B68134366
:101D9C000B60634B1B6803F007033A689A4201D04F
:101DAC000123B8E07B681B6803F00203002B20D0F2
:101DBC007B681B6803F00403002B05D0594B5B6850
:101DCC00584A43F4E06353607B681B6803F00803D4
:101DDC00002B05D0534B5B68524A43F4605353605D
:101DEC00504B5B6823F0F0027B689B684D491343B2
:101DFC004B607B681B6803F00103002B40D07B68B1
:101E0C005B68012B07D1474B1B6803F40033002B95
:101E1C0015D101237FE07B685B68022B07D1414B16
:101E2C001B6803F00073002B09D1012373E03D4BB9
:101E3C001B6803F00203002B01D101236BE0394B2B
:101E4C005B6823F003027B685B68364913434B6085
:101E5C00FEF7B8FCF8600AE0FEF7B4FC0246FB683B
:101E6C00D31A41F28832934201D9032353E02D4B0C
:101E7C005B6803F00C027B685B689B009A42EBD1B9
:101E8C00274B1B6803F007033A689A4210D2244B85
:101E9C001B6823F0070222493B6813430B60204B5D
:101EAC001B6803F007033A689A4201D0012332E021
:101EBC007B681B6803F00403002B08D0194B5B688C
:101ECC0023F4E0627B68DB68164913434B607B6844
:101EDC001B6803F00803002B09D0124B5B6823F43A
:101EEC0060527B681B69DB000E4913434B6000F0AA
:101EFC0021F802460B4B5B681B0903F00F030A49E0
:101F0C00CB5C22FA03F3094A1360094B1B68184691
:101F1C00FEF716FC002318461037BD4680BD00BFE7
:101F2C000020024000100240A43E000800000020E7
:101F3C000400002090B48AB000AF294B3C1D0FCB9D
:101F4C0084E80F0040F201233B800023FB61002357
:101F5C00BB6100237B6200237B6100233B62214B2E
:101F6C005B68FB61FB6903F00C03042B02D0082BAC
:101F7C0003D02BE01C4B3B622BE0FB699B0C03F06A
:101F8C000F0328333B4413F8243C7B61FB6903F4B7
:101F9C008033002B12D0134B5B685B0C03F00103F6
:101FAC0028333B4413F8283CBB617B690E4A03FB86
:101FBC0002F2BB69B2FBF3F37B6204E07B690B4A70
:101FCC0002FB03F37B627B6A3B6202E0064B3B62E3
:101FDC0000BF3B6A18462837BD4690BC704700BF0F
:101FEC00143E00080010024000127A0000093D0067
:101FFC0080B400AF024B1B681846BD4680BC7047CE
:10200C000000002080B500AFFFF7F2FF0246054B41
:10201C005B681B0A03F007030349CB5C22FA03F34A
:10202C00184680BD00100240B43E000880B500AFD9
:10203C00FFF7DEFF0246054B5B68DB0A03F0070384
:10204C000349CB5C22FA03F3184680BD0010024012
:10205C00B43E000880B485B000AF78600A4B1B68B2
:10206C000A4AA2FB03235B0A7A6802FB03F3FB60B8
:10207C0000BFFB685A1EFA60002BF9D100BF00BFED
:10208C001437BD4680BC704700000020D34D621051
:10209C0080B582B000AF78607B68002B01D1012342
:1020AC003FE07B6893F83D30DBB2002B06D17B68B8
:1020BC00002283F83C207868FEF740FA7B682422E3
:1020CC0083F83D207B681B68DA687B681B6822F408
:1020DC000052DA60786800F085FC7B681B681A692E
:1020EC007B681B6822F490421A617B681B685A69F2
:1020FC007B681B6822F02A025A617B681B68DA68CD
:10210C007B681B6842F40052DA607B6800221A6418
:10211C007B68202283F83D207B68202283F83E20B8
:10212C00002318460837BD4680BD80B58AB002AF83
:10213C00F860B9603B601346FB8000237B61FB6851
:10214C0093F83D30DBB2202B7CD1BB68002B02D046
:10215C00FB88002B01D1012375E0FB6893F83C3020
:10216C00012B01D102236EE0FB68012283F83C2095
:10217C00FB6800221A64FB68212283F83D20FEF7DD
:10218C0021FB7861FB68FA889A84FB68FA88DA8408
:10219C00FB689B68B3F5805F08D1FB681B69002B5B
:1021AC0004D10023FB61BB68BB6103E0BB68FB612E
:1021BC000023BB61FB68002283F83C202AE03B68CB
:1021CC0000937B6900228021F86800F038FA0346FE
:1021DC00002B01D0032336E0FB69002B0BD1BB692C
:1021EC001B881A46FB681B68C2F308025A60BB695D
:1021FC000233BB6107E0FB691A78FB681B685A6005
:10220C00FB690133FB61FB68DB8C9BB2013B9AB22F
:10221C00FB68DA84FB68DB8C9BB2002BCFD13B686C
:10222C0000937B6900224021F86800F008FA03460D
:10223C00002B01D0032306E0FB68202283F83D200D
:10224C00002300E0022318462037BD4680BD80B530
:10225C0084B000AFF860B9601346FB80FB6893F85C
:10226C003E30DBB2202B1DD1BB68002B02D0FB888B
:10227C00002B01D1012316E0FB6893F83C30012BB5
:10228C0001D102230FE0FB68012283F83C20FB689C
:10229C0000221A63FB881A46B968F86800F019FA2C
:1022AC00034600E0022318461037BD4680BD0000EF
:1022BC0080B58AB000AF78607B681B681B687B6256
:1022CC007B681B68DB683B627B681B685B69FB6136
:1022DC000023BB6100237B617B6A03F00F03BB61AE
:1022EC00BB69002B0DD17B6A03F02003002B08D0B7
:1022FC003B6A03F02003002B03D0786800F0C9FA86
:10230C007BE1BB69002B00F0B180FB6903F001039A
:10231C00002B05D13B6A03F49073002B00F0A680D0
:10232C007B6A03F00103002B0AD03B6A03F4807331
:10233C00002B05D07B681B6C43F001027B681A6490
:10234C007B6A03F00403002B0AD0FB6903F0010342
:10235C00002B05D07B681B6C43F002027B681A646F
:10236C007B6A03F00203002B0AD0FB6903F0010324
:10237C00002B05D07B681B6C43F004027B681A644D
:10238C007B6A03F00803002B0FD03B6A03F0200399
:10239C00002B04D1FB6903F00103002B05D07B68F3
:1023AC001B6C43F008027B681A647B681B6C002B67
:1023BC0000F01E817B6A03F02003002B07D03B6AE0
:1023CC0003F02003002B02D0786800F062FA7B68DF
:1023DC001B685B6903F04003002B14BF012300232F
:1023EC00DBB27B617B681B6C03F00803002B02D112
:1023FC007B69002B31D0786800F0A4F97B681B68EE
:10240C005B6903F04003002B23D07B681B685A697F
:10241C007B681B6822F040025A617B689B6B002B27
:10242C0013D07B689B6B764A5A637B689B6B184610
:10243C00FEF73EFB0346002B16D07B689B6B5B6B59
:10244C007A68926B104698470EE0786800F0E3F8D3
:10245C000AE0786800F0DFF806E0786800F0DBF856
:10246C007B6800221A64C3E000BFC1E07B681B6B71
:10247C00012B40F0A1807B6A03F01003002B00F0CD
:10248C009B803B6A03F01003002B00F09580002327
:10249C00FB607B681B681B68FB607B681B685B6868
:1024AC00FB60FB687B681B685B6903F04003002BD7
:1024BC004ED07B689B6B1B685B683B823B8A002B16
:1024CC0000F098807B689B8D3A8A9A4280F09280CB
:1024DC007B683A8ADA857B689B6B9B69202B2BD0B7
:1024EC007B681B68DA687B681B6822F48072DA6090
:1024FC007B681B685A697B681B6822F001025A6171
:10250C007B681B685A697B681B6822F040025A6121
:10251C007B68202283F83E207B6800221A637B684C
:10252C001B68DA687B681B6822F01002DA607B6833
:10253C009B6B1846FEF781FA7B689A8D7B68DB8D66
:10254C009BB2D31A9BB21946786800F06DF851E033
:10255C007B689A8D7B68DB8D9BB2D31A7B827B6800
:10256C00DB8D9BB2002B47D07B8A002B44D07B6841
:10257C001B68DA687B681B6822F49072DA607B68EF
:10258C001B685A697B681B6822F001025A617B68E0
:10259C00202283F83E207B6800221A637B681B682C
:1025AC00DA687B681B6822F01002DA607B8A1946B5
:1025BC00786800F039F81FE07B6A03F08003002B89
:1025CC0008D03B6A03F08003002B03D0786800F03E
:1025DC00F9F812E07B6A03F04003002B0DD03B6A44
:1025EC0003F04003002B08D0786800F03AF904E0BF
:1025FC0000BF02E000BF00E000BF2837BD4680BD31
:10260C00A927000880B483B000AF786000BF0C37F6
:10261C00BD4680BC704780B483B000AF786000BF0B
:10262C000C37BD4680BC704780B483B000AF786077
:10263C000B467B8000BF0C37BD4680BC704780B515
:10264C0084B000AFF860B9603B601346FB712CE0BE
:10265C00BB69B3F1FF3F28D0BB69002B07D0FEF755
:10266C00B1F802463B68D31ABA699A421DD2FB688C
:10267C001B68DA68FB681B6822F4D072DA60FB68AE
:10268C001B685A69FB681B6822F001025A61FB68DF
:10269C00202283F83D20FB68202283F83E20FB6833
:1026AC00002283F83C2003230FE0FB681B681A68A8
:1026BC00BB681340BA689A420CBF01230023DBB2FB
:1026CC001A46FB799A42C3D0002318461037BD46F0
:1026DC0080BD80B485B000AFF860B9601346FB8054
:1026EC00FB68BA689A62FB68FA889A85FB68FA8874
:1026FC00DA85FB6800221A64FB68222283F83E20EC
:10270C00FB68002283F83C20FB681B68DA68FB68D6
:10271C001B6842F48072DA60FB681B685A69FB68BC
:10272C001B6842F001025A61FB681B68DA68FB689F
:10273C001B6842F02002DA60002318461437BD46AD
:10274C0080BC704780B483B000AF78607B681B6836
:10275C00DA687B681B6822F49072DA607B681B680D
:10276C005A697B681B6822F001025A617B681B6BFB
:10277C00012B07D17B681B68DA687B681B6822F029
:10278C001002DA607B68202283F83E207B680022EE
:10279C001A6300BF0C37BD4680BC704780B584B04F
:1027AC0000AF78607B685B6AFB60FB680022DA85AF
:1027BC00FB680022DA84F868FFF72DFF00BF1037A2
:1027CC00BD4680BD80B485B000AF78607B6893F85F
:1027DC003D30DBB2212B3ED17B689B68B3F5805F2B
:1027EC0014D17B681B69002B10D17B681B6AFB60C2
:1027FC00FB681B881A467B681B68C2F308025A6088
:10280C007B681B6A9A1C7B681A6208E07B681B6AEF
:10281C00591C7A6811621A787B681B685A607B684D
:10282C00DB8C9BB2013B9BB27A681946D184002B9E
:10283C000FD17B681B68DA687B681B6822F080020A
:10284C00DA607B681B68DA687B681B6842F04002C0
:10285C00DA60002300E0022318461437BD4680BC22
:10286C00704780B582B000AF78607B681B68DA680F
:10287C007B681B6822F04002DA607B68202283F8B8
:10288C003D207868FFF7BEFE002318460837BD468A
:10289C0080BD80B586B000AF78607B6893F83E3021
:1028AC00DBB2222B40F099807B689B68B3F5805F8C
:1028BC0017D17B681B69002B13D100237B617B68CC
:1028CC009B6A3B617B681B685B689BB2C3F3080324
:1028DC009AB23B691A807B689B6A9A1C7B689A62E5
:1028EC0026E07B689B6A7B6100233B617B689B686D
:1028FC00B3F5805F07D07B689B68002B0AD17B689F
:10290C001B69002B06D17B681B685B68DAB27B699C
:10291C001A7008E07B681B685B68DBB203F07F030E
:10292C00DAB27B691A707B689B6A5A1C7B689A6264
:10293C007B68DB8D9BB2013B9BB27A681946D185D3
:10294C00002B48D17B681B68DA687B681B6822F017
:10295C002002DA607B681B68DA687B681B6822F4EB
:10296C008072DA607B681B685A697B681B6822F08E
:10297C0001025A617B68202283F83E207B681B6B26
:10298C00012B23D17B6800221A637B681B68DA68F1
:10299C007B681B6822F01002DA607B681B681B687E
:1029AC0003F01003102B0AD10023FB607B681B681B
:1029BC001B68FB607B681B685B68FB60FB687B6863
:1029CC009B8D19467868FFF72FFE02E0786800F0BF
:1029DC0033FE002302E0002300E0022318461837E0
:1029EC00BD4680BD80B584B000AF78607B681B6845
:1029FC001B6923F440517B68DA687B681B680A43C7
:102A0C001A617B689A687B681B691A437B685B69EF
:102A1C001343BB607B681B68DB6823F4B05323F063
:102A2C000C037A681268B9680B43D3607B681B6827
:102A3C005B6923F440717B689A697B681B680A4365
:102A4C005A617B681B682C4A934203D1FFF7EEFA5C
:102A5C00F86002E0FFF7D6FAF860FA6813469B00BC
:102A6C0013449A001A447B685B689B00B2FBF3F337
:102A7C00224AA2FB03235B091901FA6813469B0047
:102A8C0013449A001A447B685B689B00B2FBF3F218
:102A9C001A4BA3FB02035B09642000FB03F3D31A5C
:102AAC001B013233154AA2FB03235B0903F0F0032D
:102ABC001944FA6813469B0013449A001A447B6825
:102ACC005B689B00B2FBF3F20C4BA3FB02035B09AC
:102ADC00642000FB03F3D31A1B013233074AA2FB19
:102AEC0003235B0903F00F027B681B680A449A609E
:102AFC0000BF1037BD4680BD003801401F85EB512B
:102B0C0080B400AF144BDB68134A23F08073D3609E
:102B1C00114BDB68104A43F08073D3600F4B1B687A
:102B2C000E4A23F0010313600C4B1B680B4A43F055
:102B3C0001031360094B00225A6000BF00BF00BFA5
:102B4C00064B5B68002B01D0002300E001231846E4
:102B5C00BD4680BC704700BFF0ED00E0001000E007
:102B6C0080B485B000AFF860B96011461A460B46C8
:102B7C00FB711346BB80FB6800221A80FB680022A5
:102B8C005A80FB68FA791A73FB68BA88DA80FB689A
:102B9C00BA689A6000BF1437BD4680BC704780B4D9
:102BAC0083B000AF78607B68002B09D07B689A8873
:102BBC007B68DB889A422CBF01230023DBB200E048
:102BCC00002318460C37BD4680BC704780B483B0D8
:102BDC0000AF78607B681A887B685B889A420CBF70
:102BEC0001230023DBB218460C37BD4680BC70476E
:102BFC0080B584B000AF786039600023FB7318E0B7
:102C0C00FB7B3A681A447B689B68796809880B449B
:102C1C0012781A707B681B8801339AB27B681A8011
:102C2C007B689B8801339AB27B689A80FB7B01336B
:102C3C00FB737B681B7BFA7B9A42E1D37868FFF7C6
:102C4C00AEFF0346002B08D07B685A887B681B7B41
:102C5C009BB213449AB27B685A80012318461037F2
:102C6C00BD4680BD80B584B000AF786039607868AF
:102C7C00FFF7ACFF0346002B04D07B6800229A8040
:102C8C00002321E00023FB7318E07B689B687A68C3
:102C9C0052881A44FB7B39680B4412781A707B6893
:102CAC005B8801339AB27B685A807B689B88013BB6
:102CBC009AB27B689A80FB7B0133FB737B681B7B2E
:102CCC00FA7B9A42E1D3012318461037BD4680BDEA
:102CDC0080B584B000AF7860FDF774FDF860FA68D9
:102CEC007B689A4205D9FDF76DFD02467B68D31AC5
:102CFC0004E0FA687B68D31AA3F580731846103782
:102D0C00BD4680BD80B582B000AF786008E064231A
:102D1C00012279680748FFF708FA7B6801337B606A
:102D2C007B681B78002BF2D100BF00BF0837BD4673
:102D3C0080BD00BFD400002080B500AFFF2301226E
:102D4C0005490648FFF70CFF012205490548FFF726
:102D5C007EFA00BF80BD00BF700100206001002022
:102D6C006F0200201801002080B582B000AF002354
:102D7C00FB710DE0FB79624A134419466148FFF779
:102D8C0071FF0346002B00F0B380FB790133FB711C
:102D9C00FB79022BEED95A4B1B78462B40F09680D0
:102DAC00574B5B78452B40F09180554B9B78452BCE
:102DBC0040F08C800023BB710DE0BB79504A13446A
:102DCC0019465048FFF74EFF0346002B00F0928047
:102DDC00BB790133BB71BB79072BEED9484B1B7800
:102DEC002B2B40F08A80464B5B781A46920013449A
:102DFC005B00DAB2424B9B781344DBB2103B3B7165
:102E0C003F4BDB781A46920013445B00DAB23C4B22
:102E1C001B791344DBB2103BFB70394B5B79303BB5
:102E2C00BB70374B9B791A46920013445B00DAB2A5
:102E3C00334BDB791344DBB2103B7B701E22002139
:102E4C002F4800F0CDFF00237B710CE07B792C4ADE
:102E5C00134419462B48FFF705FF0346002B4BD0B4
:102E6C007B7901337B717A797B789A42EED33A790C
:102E7C00FB781146184600F077FFBB78022B14D074
:102E8C00022B19DC002B02D0012B07D014E01E4AB8
:102E9C00012306CA1A4800F041FF14E01B4A012323
:102EAC0006CA174800F03AFF0DE0194A012306CA7A
:102EBC00134800F033FF06E0134A012306CA1048FA
:102ECC0000F02CFF00BF00F019FE16E00C4B1B7835
:102EDC00442B12D10A4B5B78452B0ED1084B9B78B7
:102EEC004C2B0AD1002000F0E7FD00F007FE04E0B7
:102EFC0000BF02E000BF00E000BF0837BD4680BD48
:102F0C0078020020600100200C000020140000203A
:102F1C001C00002080B500AFFDF754FC0246704B3E
:102F2C001B68D31A0A2B40F2D88002216D48FDF79A
:102F3C00B9FF0346002B06D16B4B1B780133DAB279
:102F4C00694B1A7002E0684B00221A700121654827
:102F5C00FDF7A8FF0346002B06D1644B1B78013309
:102F6C00DAB2624B1A7002E0604B00221A708021B8
:102F7C005F48FDF797FF0346002B06D15D4B1B788E
:102F8C000133DAB25B4B1A7002E05A4B00221A7012
:102F9C0040215748FDF786FF0346002B06D1564BC0
:102FAC001B780133DAB2544B1A7002E0524B0022F8
:102FBC001A7020214E48FDF775FF0346002B06D1F1
:102FCC004E4B1B780133DAB24C4B1A7002E04B4B70
:102FDC0000221A7010214648FDF764FF0346002BAF
:102FEC0006D1474B1B780133DAB2454B1A7002E01D
:102FFC00434B00221A703C4B1B78052B07D9414BD5
:10300C001B7823F00103DAB23E4B1A7006E03D4BFD
:10301C001B7843F00103DAB23A4B1A70334B1B782E
:10302C00052B07D9374B1B7823F00203DAB2354B4B
:10303C001A7006E0334B1B7843F00203DAB2314BC3
:10304C001A702C4B1B78052B07D92E4B1B7823F0B1
:10305C000403DAB22B4B1A7006E02A4B1B7843F0B0
:10306C000403DAB2274B1A70234B1B78052B07D9B4
:10307C00244B1B7823F00803DAB2224B1A7006E0BB
:10308C00204B1B7843F00803DAB21E4B1A701B4B13
:10309C001B78052B07D91B4B1B7823F01003DAB2D6
:1030AC00184B1A7006E0174B1B7843F01003DAB27A
:1030BC00144B1A70124B1B78052B07D9114B1B782C
:1030CC0023F02003DAB20F4B1A7006E00D4B1B787D
:1030DC0043F02003DAB20B4B1A7000BF80BD00BF67
:1030EC0098020020000C01407102002072020020A6
:1030FC0000080140730200207402002075020020B9
:10310C00760200202400002080B500AFFFF7F8FC09
:10311C0000F066FCFFF710FE00F052FB0248FFF7D0
:10312C00F1FD00BF80BD00BF243E000880B584B017
:10313C0000AF0023BB600023BB81FF23FB73002384
:10314C003B6000233B71FFF7E5FE2B4B1B681846D9
:10315C00FFF7BEFD03463B2B31D907F10803184698
:10316C0000F052FB07F10803184600F0B5FB0346CC
:10317C00FB7346233B703B7A7B707B7ABB701F4B97
:10318C001B78FB70FB7B3B713946C82305221C481E
:10319C00FEF7CBFF7B781B021AB2BB781BB2134332
:1031AC001BB29AB2174B1A80174AFB7B1370174B42
:1031BC0001221A70FDF706FB03460F4A1360144BED
:1031CC001B681846FFF784FD0346632B06D9FFF7EF
:1031DC00CBFDFDF7F7FA03460D4A13600B4B1B783A
:1031EC00002B04D000F016F8084B00221A7000BF18
:1031FC001037BD4680BD00BF9C020020240000207B
:10320C001801002026000020280000207002002059
:10321C00A002002080B500AFA94B1B685B7803F0BF
:10322C001003DBB2002B19D101224FF40051A54839
:10323C00FDF74FFEA44B1B78012B0BD035214B20F7
:10324C0000F092FDA14A012306CAA14800F066FDD8
:10325C0000F054FC9C4B01221A70DBE1984B1B686C
:10326C005B7803F04003DBB2002B19D101224FF441
:10327C0000519448FDF72DFE934B1B78022B0BD07D
:10328C0035214B2000F070FD904A012306CA91486D
:10329C0000F044FD00F032FC8B4B02221A70B9E1B5
:1032AC00874B1B685B7803F02003DBB2002B19D132
:1032BC0001224FF400518348FDF70BFE824B1B7823
:1032CC00032B0BD035214B2000F04EFD7F4A012300
:1032DC0006CA814800F022FD00F010FC7A4B032254
:1032EC001A7097E1764B1B685B7823F07F03DBB297
:1032FC00002B19D101224FF400517248FDF7E9FD62
:10330C00714B1B78042B0BD035214B2000F02CFD7E
:10331C006E4A012306CA714800F000FD00F0EEFB76
:10332C00694B04221A7075E1654B1B681B7803F01E
:10333C000403DBB2002B19D101224FF40051614878
:10334C00FDF7C7FD604B1B78052B0BD035214B20AF
:10335C0000F00AFD5D4A012306CA614800F0DEFC5C
:10336C0000F0CCFB584B05221A7053E1544B1B68F0
:10337C001B7803F00103DBB2002B19D101224FF4AF
:10338C0000515048FDF7A5FD4F4B1B78062B0BD079
:10339C0035214B2000F0E8FC4C4A012306CA514869
:1033AC0000F0BCFC00F0AAFB474B06221A7031E17E
:1033BC00434B1B681B7803F00803DBB2002B19D1BD
:1033CC0001224FF400513F48FDF783FD3E4B1B7823
:1033DC00072B0BD035214B2000F0C6FC3B4A0123B8
:1033EC0006CA414800F09AFC00F088FB364B0722D5
:1033FC001A700FE1324B1B681B7803F00203DBB22F
:10340C00002B19D101224FF400512E48FDF761FD1C
:10341C002D4B1B78082B0BD035214B2000F0A4FC36
:10342C002A4A012306CA314800F078FC00F066FBFA
:10343C00254B08221A70EDE0214B1B685B7803F0DA
:10344C000103DBB2002B19D101224FF400511D48AE
:10345C00FDF73FFD1C4B1B78092B0BD035214B2066
:10346C0000F082FC194A012306CA214800F056FCE0
:10347C0000F044FB144B09221A70CBE0104B1B6874
:10348C005B7803F00803DBB2002B35D101224FF43B
:10349C0000510C48FDF71DFD0B4B1B780A2B0BD074
:1034AC0035214B2000F060FC084A012306CA114864
:1034BC0000F034FC00F022FB034B0A221A70A9E046
:1034CC002C00002000100140A40200200C00002061
:1034DC00343E00083C3E0008443E00084C3E0008C8
:1034EC00543E00085C3E0008643E00086C3E000838
:1034FC00743E00087C3E0008474B1B681B7803F0A9
:10350C002003DBB2002B19D101224FF400514348A8
:10351C00FDF7DFFC424B1B780B2B0BD035214B20DE
:10352C0000F022FC3F4A012306CA3F4800F0F6FB9C
:10353C0000F0E4FA3A4B0B221A706BE0364B1B6826
:10354C001B7823F07F03DBB2002B19D101224FF43F
:10355C0000513248FDF7BDFC314B1B780C2B0BD0C6
:10356C0035214B2000F000FC2E4A012306CA2F48BF
:10357C0000F0D4FB00F0C2FA294B0C221A7049E07F
:10358C00254B1B681B7803F01003DBB2002B19D101
:10359C0001224FF400512148FDF79BFC204B1B7876
:1035AC000D2B0BD035214B2000F0DEFB1D4A0123E7
:1035BC0006CA1F4800F0B2FB00F0A0FA184B0D220F
:1035CC001A7027E0144B1B681B7803F04003DBB226
:1035DC00002B19D101224FF400511048FDF779FC52
:1035EC000F4B1B780E2B0BD035214B2000F0BCFB66
:1035FC000C4A012306CA0F4800F090FB00F07EFA3B
:10360C00074B0E221A7005E000224FF400510348BC
:10361C00FDF75FFC00BF80BD2C00002000100140B6
:10362C00A40200200C000020843E00088C3E000800
:10363C00943E00089C3E000880B582B000AF7860D4
:10364C007B681B68074A934208D107490748FFF774
:10365C00CFFA012204490648FEF7F9FD00BF0837EE
:10366C00BD4680BD004800406F0200206001002074
:10367C001801002080B584B000AF78600D4B5B68FA
:10368C00FB60FEF7B5FC03460B4AA2FB03239B0C25
:10369C007A6802FB03F37B6000BF064B5A68FB6839
:1036AC00D21A7B689A42F8D300BF00BF1037BD46D0
:1036BC0080BD00BF001000E083DE1B4380B586B0E8
:1036CC0000AF78600023FB750023FB7301224FF4DD
:1036DC0080512248FDF7FDFB00233B6133E07B6802
:1036EC00DBB203F00103DBB21A464FF480411B48F6
:1036FC00FDF7EFFB0A20FFF7BDFF00224FF48051CE
:10370C001648FDF7E6FB0A20FFF7B4FF4FF4004123
:10371C001248FDF7C7FB0346FB73FB7D5B08DBB26E
:10372C005AB2FB7BDB015BB213435BB2FB7501222C
:10373C004FF480510948FDF7CCFB7B685B087B603C
:10374C003B6901333B613B69072BC8D91420FFF758
:10375C0091FFFB7D18461837BD4680BD000C01401B
:10376C0080B584B000AF78600B46FB7000224FF43C
:10377C0000511248FDF7ADFB1020FFF77BFF002333
:10378C00FB6009E0FB687A6813441B781846FFF766
:10379C0095FFFB680133FB60FB78FA689A42F1DB1A
:1037AC001020FFF767FF01224FF400510348FDF78B
:1037BC0090FB00BF1037BD4680BD00BF000C014020
:1037CC0080B500AF05210C48FFF7CAFF05210A4858
:1037DC00FFF7C6FF05210848FFF7C2FF0521074880
:1037EC00FFF7BEFF09210648FFF7BAFF092105487C
:1037FC00FFF7B6FF00BF80BD30000020380000206E
:10380C00400000204C00002090B585B000AF7860DF
:10381C008023FB7300224FF400512E48FDF759FB17
:10382C000120FFF74BFF4220FFF748FF0346FB73D5
:10383C000020FFF743FF0020FFF740FF03461A4626
:10384C007B681A707B685C1C0020FFF737FF03460F
:10385C002370FB7B732B05D0FB7B232B02D0FB7BD4
:10386C00532B1BD17B689C1C0020FFF727FF0346C2
:10387C0023707B68DC1C0020FFF720FF03462370BD
:10388C007B681C1D0020FFF719FF034623707B6823
:10389C005C1D0020FFF712FF03462370FB7B122BED
:1038AC000DD17B689C1C0020FFF708FF034623709A
:1038BC007B68DC1C0020FFF701FF0346237001220C
:1038CC004FF400510348FDF704FB00BF1437BD460D
:1038DC0090BD00BF000C014080B485B000AF786093
:1038EC00FF23FB737B6805331B78C82B04D9FB7B48
:1038FC0023F00103FB730DE07B6805331B78312B40
:10390C0004D8FB7B23F00203FB7303E0FB7B43F047
:10391C000303FB737B6804331B78C82B04D9FB7B34
:10392C0023F00403FB730DE07B6804331B78312B0D
:10393C0004D8FB7B23F00803FB7303E0FB7B43F011
:10394C000C03FB737B6803331B78C82B04D9FB7BFC
:10395C0023F01003FB730DE07B6803331B78312BD2
:10396C0004D8FB7B23F02003FB7303E0FB7B43F0C9
:10397C003003FB737B6802331B78C82B04D9FB7BA9
:10398C0023F04003FB730DE07B6802331B78312B73
:10399C0004D8FB7B03F07F03FB7303E0FB7B63F03A
:1039AC003F03FB73FB7B18461437BD4680BC704746
:1039BC0080B586B004AF0346FB7114230293012338
:1039CC000193FB1D00930123002278210348FDF78E
:1039DC00DDFB00BF0837BD4680BD00BF7400002072
:1039EC0080B500AF6420FCF7F7FEAE20FFF7E0FFD8
:1039FC002020FFF7DDFF1020FFF7DAFFB020FFF7E4
:103A0C00D7FFC820FFF7D4FF0020FFF7D1FF10200D
:103A1C00FFF7CEFF4020FFF7CBFF8120FFF7C8FF59
:103A2C00FF20FFF7C5FFA120FFF7C2FFA620FFF77D
:103A3C00BFFFA820FFF7BCFF3F20FFF7B9FFA42072
:103A4C00FFF7B6FFD320FFF7B3FF0020FFF7B0FF5F
:103A5C00D520FFF7ADFFF020FFF7AAFFD920FFF725
:103A6C00A7FF2220FFF7A4FFDA20FFF7A1FF122007
:103A7C00FFF79EFFDB20FFF79BFF2020FFF798FF4F
:103A8C008D20FFF795FF1420FFF792FFAF20FFF773
:103A9C008FFF002000F010F800F030F8054B0022EA
:103AAC001A80044B00225A80024B01225A710123C6
:103ABC00184680BDA806002080B485B000AF034630
:103ACC00FB710023FB600DE0FB79002B01D1002181
:103ADC0000E0FF21084AFB6813440A461A70FB6891
:103AEC000133FB60FB68B3F5806FEDD300BF00BF03
:103AFC001437BD4680BC7047A802002080B586B044
:103B0C0004AF0023FB711DE0FB79503BDBB2184680
:103B1C00FFF74EFF0020FFF74BFF1020FFF748FF89
:103B2C00FB79DB010B4A134496220292802201920C
:103B3C0000930123402278210748FDF727FBFB79EE
:103B4C000133FB71FB79072BDED900BF00BF0837AF
:103B5C00BD4680BDA80200207400002080B483B054
:103B6C0000AF0346FB710B46BB7113467B7197F993
:103B7C000730002B48DBBB793F2B45D8254B1B79F5
:103B8C00002B06D07B79002B0CBF01230023DBB26A
:103B9C007B717B79012B1AD1FA79BB79DB08D8B20E
:103BAC000346DB0113441C4AD35C5AB2BB7903F0C5
:103BBC000703012101FA03F35BB2134359B2FA79FB
:103BCC000346DB011344C9B2134AD1541DE0FA7900
:103BDC00BB79DB08D8B20346DB0113440E4AD35C35
:103BEC005AB2BB7903F00703012101FA03F35BB26C
:103BFC00DB435BB2134059B2FA790346DB01134441
:103C0C00C9B2054AD15400E000BF0C37BD4680BC98
:103C1C00704700BFA8060020A802002090B589B00C
:103C2C0000AF0446381D80E806001A462346FB7395
:103C3C001346BB73384B1B881A463B7913447F2BB6
:103C4C0006DC354B5B881A467B7913443F2B01DD30
:103C5C0000235DE00023FB614CE0BA68FB7B203B5A
:103C6C00797901FB03F31946FB690B445B001344A0
:103C7C001B887B610023BB6134E07A69BB6902FA63
:103C8C0003F303F40043002B12D0234B1B88DAB24E
:103C9C00BB69DBB21344D8B21F4B5B88DAB2FB6949
:103CAC00DBB21344DBB2BA7B1946FFF757FF16E0C1
:103CBC00194B1B88DAB2BB69DBB21344D8B2164B72
:103CCC005B88DAB2FB69DBB21344D9B2BB7B002B45
:103CDC000CBF01230023DBB21A46FFF73FFFBB6981
:103CEC000133BB613B791A46BB699342C5D3FB696F
:103CFC000133FB617B791A46FB699342ADD3064BCA
:103D0C001A883B799BB213449AB2034B1A80FB7B03
:103D1C0018462437BD4690BDA806002080B584B057
:103D2C0000AFF860381D80E80600FB7012E0FB68FD
:103D3C001878FB783A1D06CAFFF770FF03461A463F
:103D4C00FB681B789A4202D0FB681B7808E0FB6882
:103D5C000133FB60FB681B78002BE8D1FB681B78F8
:103D6C0018461037BD4680BD80B483B000AF034603
:103D7C000A46FB711346BB71FB799AB2054B1A804C
:103D8C00BB799AB2034B5A8000BF0C37BD4680BC3E
:103D9C00704700BFA806002070B500260C4D0D4CD6
:103DAC00641BA410A64209D100F022F800260A4D8B
:103DBC000A4C641BA410A64205D170BD55F8043BF7
:103DCC0098470136EEE755F8043B98470136F2E781
:103DDC00D0660008D0660008D0660008D4660008DB
:103DEC0003460244934200D1704703F8011BF9E7E4
:103DFC00F8B500BFF8BC08BC9E467047F8B500BFCC
:083E0C00F8BC08BC9E4670479B
:103E140002030405060708090A0B0C0D0E0F101007
:103E24004D61696E20496E697421200A000000000A
:103E34002020202020555000202020444F574E00A1
:103E440020205249474854002020204C4546540025
:103E540020202020204C310020202020204C320023
:103E64002020202020523100202020202052320007
:103E74002053454C45435400202053544152540090
:103E840020202054524F4E00202056554F4E4700BC
:103E940054414D4749414300202020202020580010
:103EA40000000000000000000102030406070809E6
:103EB40000000000010203040000000000000000F4
:103EC40000000000000000000000000000100010CE
:103ED400001000100010001000000010000000008E
:103EE4000028002800280000000000000000000056
:103EF4000000000000240024007C00240048007C12
:103F04000048004800000000003800540050003809
:103F14000014005400540038001000000020005425
:103F2400005800300028005400140008000000006D
:103F34000010002800280010003400480048003415
:103F4400000000000010001000100000000000003D
:103F54000000000000000000000800100020002005
:103F64000020002000200020001000080020001085
:103F740000080008000800080008000800100020DD
:103F840000100038001000280000000000000000AD
:103F9400000000000000000000100010007C001071
:103FA40000100000000000000000000000000000FD
:103FB40000000000000000100010001000000000CD
:103FC40000000000000000380000000000000000B5
:103FD40000000000000000000000000000000010CD
:103FE400000000000008000800100010001000107D
:103FF4000020002000000000003800440044005469
:104004000044004400440038000000000010003068
:1040140000500010001000100010001000000000FC
:104024000038004400440004000800100020007C14
:1040340000000000003800440004001800040004DC
:104044000044003800000000000800180028002880
:104054000048007C0008000800000000007C0040CC
:104064000040007800040004004400380000000010
:104074000038004400400078004400440044003804
:1040840000000000007C0004000800100010002064
:1040940000200020000000000038004400440038E4
:1040A400004400440044003800000000003800448C
:1040B40000440044003C00040044003800000000B8
:1040C40000000000001000000000000000000010CC
:1040D40000000000000000000000001000000000CC
:1040E400000000100010001000000000000C003060
:1040F40000400030000C0000000000000000000040
:104104000000007C0000007C0000000000000000B3
:1041140000000000006000180004001800600000A7
:1041240000000000003800440004000800100010E3
:10413400000000100000000000380044004C00544F
:10414400005C00400040003800000000001000281F
:10415400002800280028007C0044004400000000DF
:10416400007800440044007800440044004400788F
:1041740000000000003800440040004000400040BF
:10418400004400380000000000700048004400446F
:10419400004400440048007000000000007C00401F
:1041A4000040007C004000400040007C0000000013
:1041B400007C004000400078004000400040004087
:1041C400000000000038004400400040005C00444F
:1041D4000044003800000000004400440044007C17
:1041E4000044004400440044000000000038001073
:1041F4000010001000100010001000380000000033
:104204000004000400040004000400040044003816
:1042140000000000004400480050006000500048C6
:1042240000480044000000000040004000400040FE
:10423400004000400040007C000000000044006C8E
:10424400006C00540044004400440044000000009A
:1042540000440064006400540054004C004C0044CA
:1042640000000000003800440044004400440044BE
:10427400004400380000000000780044004400447A
:104284000078004000400040000000000038004476
:10429400004400440044004400540038000400007A
:1042A400007800440044004400780048004800447A
:1042B4000000000000380044004000300008000402
:1042C4000044003800000000007C001000100010C2
:1042D4000010001000100010000000000044004412
:1042E400004400440044004400440038000000003E
:1042F4000044004400440028002800280010001056
:104304000000000000440044005400540054006CB9
:1043140000280028000000000044002800280010A5
:10432400001000280028004400000000004400445D
:1043340000280028001000100010001000000000E9
:10434400007C000400080010001000200040007CE5
:1043540000000000001800100010001000100010F1
:1043640000100010001000180020002000100010A1
:1043740000100010000800080000000000300010C9
:104384000010001000100010001000100010003089
:104394000010002800280044000000000000000075
:1043A4000000000000000000000000000000000009
:1043B40000000000000000FE0020001000000000CB
:1043C40000000000000000000000000000000000E9
:1043D40000380044003C0044004C0034000000005D
:1043E4000040004000580064004400440064005849
:1043F40000000000000000000038004400400040BD
:104404000044003800000000000400040034004CA4
:1044140000440044004C0034000000000000000090
:1044240000380044007C00400044003800000000D4
:10443400000C0010007C0010001000100010001090
:1044440000000000000000000034004C0044004460
:10445400004C003400040078004000400058006420
:104464000044004400440044000000000010000028
:104474000070001000100010001000100000000078
:104484000010000000700010001000100010001058
:10449400001000E000400040004800500060005060
:1044A40000480044000000000070001000100010DC
:1044B40000100010001000100000000000000000B8
:1044C40000780054005400540054005400000000CC
:1044D400000000000058006400440044004400440C
:1044E40000000000000000000038004400440044C4
:1044F4000044003800000000000000000058006480
:1045040000440044006400580040004000000000E3
:104514000034004C00440044004C00340004000407
:1045240000000000005800640040004000400040CB
:1045340000000000000000000038004400300008C3
:104544000044003800000000002000200078002013
:1045540000200020002000180000000000000000DF
:104564000044004400440044004C003400000000B7
:104574000000000000440044002800280028001027
:104584000000000000000000005400540054006CBF
:10459400002800280000000000000000004400285B
:1045A400001000100028004400000000000000007B
:1045B400004400440028002800100010001000608F
:1045C40000000000007C0008001000200040007C77
:1045D400000000000018001000100010002000204F
:1045E400001000100010001800100010001000103F
:1045F4000010001000100010001000100030001017
:104604000010001000080008001000100010003016
:104614000000000000000074004C000000000000D6
:104624000000000000000000000000000000000086
:104634000000000000000000000000000000000076
:1046440000000000000000000000000C000C000C42
:10465400000C000C000C000C000C000C000C000CF6
:104664000000000C000C0000000000000000001B13
:10467400001B001B001B001B0000000000000000CA
:104684000000000000000000000000000000000026
:1046940000008019801980198019C07FC07F80199B
:1046A4000033C07FC07F0033003300330033000089
:1046B400000000000000001E003F8075806500744B
:1046C400003C001E00078005806580658075003F02
:1046D400001E0004000400000000007000D840D850
:1046E400C0D880D900730006000C801BC036C06699
:1046F400C046C00680030000000000000000001E49
:10470400003F003300330033001E000CC03CC06681
:10471400806380618063C03E801C00000000000054
:104724000000000C000C000C000C000C0000000049
:104734000000000000000000000000000000000075
:1047440000000000800000010003000600060004D1
:10475400000C000C000C000C000C000C0004000603
:104764000006000300018000002000100018000C67
:10477400000C000400060006000600060006000601
:104784000004000C000C0018001000200000000CB5
:10479400002D003F001E0033000000000000000058
:1047A4000000000000000000000000000000000005
:1047B400000000000000000C000C000C000CC0FF06
:1047C400C0FF000C000C000C000C000000000000F6
:1047D40000000000000000000000000000000000D5
:1047E4000000000000000000000000000000000CB9
:1047F400000C000400040008000000000000000099
:1048040000000000000000000000001E001E000068
:104814000000000000000000000000000000000094
:104824000000000000000000000000000000000084
:10483400000000000000000C000C0000000000005C
:104844000000000300030003000600060006000643
:10485400000C000C000C000C0018001800180000DC
:10486400000000000000001E003F003380618061F2
:104874008061806D806D8061806180610033003F64
:10488400001E00000000000000000006000E001ED4
:104894000036002600060006000600060006000694
:1048A4000006000600060000000000000000001ED4
:1048B400003F807380618061800100030006000C6A
:1048C400001800300060807F807F0000000000003E
:1048D4000000001C003E006300630003000E000E95
:1048E40000038001800180618073003F001E00008E
:1048F4000000000000000006000E000E001E001E56
:104904000016003600360066807F807F00060006B1
:1049140000060000000000000000007F007F00602F
:1049240000600060006E007F806380018001806110
:104934008073003F001E0000000000000000001E05
:10494400003F803380610060006E007F807380616F
:10495400806180618033003F001E00000000000081
:104964000000807F807F80010003000300060006B2
:10497400000C000C000C00080018001800180000BF
:10498400000000000000001E003F80638061806121
:104994000021001E003F8061806180618061003FD2
:1049A400001E0000000000000000001E003F007315
:1049B4008061806180618073803F801D800180619F
:1049C4000073003F001E0000000000000000000013
:1049D400000000000000000C000C000000000000BB
:1049E400000000000000000C000C000000000000AB
:1049F400000000000000000000000000000C000C9B
:104A040000000000000000000000000C000C000486
:104A14000004000800000000000000008000800383
:104A2400000E003800600038000E80038000000093
:104A34000000000000000000000000000000000072
:104A44000000807F807F00000000807F807F000066
:104A54000000000000000000000000000000000052
:104A64000000000000400070001C000780010007E7
:104A7400001C007000400000000000000000000066
:104A84000000001F803FC071C060C000C0018003EF
:104A94000007000E000C000C0000000C000C0000CD
:104AA400000000000000001E003F80318071806320
:104AB400806F806D806D806F806700600032003E83
:104AC400001C0000000000000000000E000E001B8F
:104AD400001B001B001B80318031803F803F8031F0
:104AE400C060C060C0600000000000000000007CE6
:104AF400007E0063006300630063007E007E006349
:104B0400806180618063007F007E000000000000FF
:104B14000000001E003F8031806100600060006082
:104B240000600060006080618031003F001E000072
:104B3400000000000000007C007F0063806380614F
:104B44008061806180618061806100630063007EB8
:104B5400007C0000000000000000807F807F006077
:104B6400006000600060007F007F00600060006003
:104B74000060807F807F0000000000000000807FD4
:104B8400807F0060006000600060007F007F006044
:104B94000060006000600060006000000000000031
:104BA4000000001E003F80318061006000600060F2
:104BB40080638063806180618031803F001E0000DB
:104BC400000000000000806180618061806180617C
:104BD4008061807F807F806180618061806180618D
:104BE40080610000000000000000003F003F000C56
:104BF400000C000C000C000C000C000C000C000C51
:104C0400000C003F003F0000000000000000800195
:104C14008001800180018001800180018001800188
:104C2400806180618073003F001E0000000000006E
:104C34000000C0608061006300660066006C00785C
:104C4400007C00660066006380618061C0600000D3
:104C54000000000000000060006000600060006070
:104C64000060006000600060006000600060807FA1
:104C7400807F0000000000000000C071C071C07B94
:104C8400C07AC06AC06AC06EC064C060C060C060E0
:104C9400C060C060C06000000000000000008071BF
:104CA4008071807980798079806D806D806D806578
:104CB4008067806780678063806300000000000075
:104CC4000000001E003F00338061806180618061CC
:104CD40080618061806180610033003F001E0000BC
:104CE400000000000000007E007F8063806180611E
:104CF40080618063007F007E00600060006000606F
:104D040000600000000000000000001E003F0033AF
:104D1400806180618061806180618061806580677D
:104D24000033803F401E0000000000000000007EB1
:104D3400007F8063806180618063007F007E006605
:104D44000063006380618061C060000000000000B7
:104D54000000000E001F8031803100300038001E3A
:104D640000078003806180618031003F001E0000E5
:104D7400000000000000C0FFC0FF000C000C000C8D
:104D8400000C000C000C000C000C000C000C000CBF
:104D9400000C000000000000000080618061806160
:104DA40080618061806180618061806180618061F7
:104DB4008073003F001E0000000000000000C0607F
:104DC400C060C060803180318031001B001B001B3B
:104DD400001B000E000E000E000400000000000086
:104DE4000000C0C0C0C0C0C0C0C0C0C0C0CC804CE7
:104DF400804C805E805280528073806180610000AC
:104E0400000000000000C0C0806080610033003BEF
:104E1400001E000C000C001E001F003B807180610E
:104E2400C0C00000000000000000C0C080618061BC
:104E340000330033001E001E000C000C000C000C9C
:104E4400000C000C000C0000000000000000803F7B
:104E5400803F8001000300030006000C000C0018D2
:104E6400001800300060807F807F00000000000098
:104E7400000F000F000C000C000C000C000C000CC8
:104E8400000C000C000C000C000C000C000C000CBE
:104E9400000F000F0000001800180018000C000C90
:104EA400000C000C000600060006000600030003C8
:104EB4000003000000000000001E001E00060006A3
:104EC40000060006000600060006000600060006AE
:104ED4000006000600060006001E001E0000000C6E
:104EE400000C001E0012003300338061806100005A
:104EF40000000000000000000000000000000000AE
:104F0400000000000000000000000000000000009D
:104F1400000000000000000000000000000000008D
:104F2400E0FF0000000000380018000C0000000042
:104F3400000000000000000000000000000000006D
:104F4400000000000000000000000000000000005D
:104F54000000001F803F80618001801F803F8061CE
:104F64008063807FC0380000000000000000006003
:104F7400006000600060006E007F8073806180616B
:104F8400806180618073007F006E0000000000007B
:104F940000000000000000000000001E003F8073BD
:104FA40080610060006080618073003F001E00002B
:104FB4000000000000008001800180018001801D4C
:104FC400803F807380618061806180618073803FF5
:104FD400801D000000000000000000000000000030
:104FE4000000001E003F00738061807F807F0060AE
:104FF4008071003F001E0000000000000000C00798
:10500400C00F000C000C807F807F000C000C000C93
:10501400000C000C000C000C000C00000000000050
:105024000000000000000000801D803F807380614C
:105034008061806180618073803F801D8001806316
:10504400007F003E00000060006000600060006FB0
:10505400807F807180618061806180618061806116
:10506400806100000000000000000006000600004F
:105074000000003E003E0006000600060006000692
:1050840000060006000600000000000000060006FE
:1050940000000000003E003E000600060006000678
:1050A400000600060006000600060046007E003CDE
:1050B40000000060006000600060806100630066C2
:1050C400006C007C0076006300638061C0600000B7
:1050D400000000000000003E003E0006000600063E
:1050E400000600060006000600060006000600068C
:1050F40000060000000000000000000000000000A6
:10510400000080DDC0FFC0CEC0CCC0CCC0CCC0CCC1
:10511400C0CCC0CCC0CC00000000000000000000E7
:10512400000000000000006F807F8071806180615A
:105134008061806180618061806100000000000006
:1051440000000000000000000000001E003F80730B
:1051540080618061806180618073003F001E000077
:10516400000000000000000000000000006E007F4E
:10517400807380618061806180618073007F006ED4
:10518400006000600060006000000000000000009B
:10519400801D803F80738061806180618061807345
:1051A400803F801D8001800180018001000000009B
:1051B4000000000000000067803F0039003000302C
:1051C40000300030003000300030000000000000EB
:1051D40000000000000000000000001E803F80610D
:1051E4000060007F803F80018061007F001E00001E
:1051F4000000000000000000000800180018007FF4
:10520400007F001800180018001800180018801FEC
:10521400800F0000000000000000000000000000FB
:105224000000806180618061806180618061806153
:105234008063807F803D00000000000000000000CB
:10524400000000000000C060803180318031001B0C
:10525400001B001B000E000E0006000000000000F2
:105264000000000000000000000080DD80DD80DD23
:1052740000550055005500770077002200220000F9
:105284000000000000000000000000000000806139
:1052940000330033001E000C000C001E00330033EA
:1052A4008061000000000000000000000000000019
:1052B40080618061803100330033001B001B001BC0
:1052C400000E000E000E001C007C007000000000A8
:1052D400000000000000C07FC07F800100030006C2
:1052E400000C00180030C07FC07F000000000000E8
:1052F4008003800700060006000600060006000E74
:10530400001C001C000E0006000600060006000635
:10531400800780030006000600060006000600065B
:105324000006000600060006000600060006000649
:1053340000060006000600060038003C000C000CC5
:10534400000C000C000C000E00070007000E000CFF
:10535400000C000C000C000C003C003800000000A5
:10536400000000000000000000008038807F00473B
:105374000000000000000000000000000000000029
:105384000000000000000000000000000000000019
:105394000000000000000000000000000000000009
:1053A40000000000000000000000000000000000F9
:1053B40000000000E003E003E003E003E003E00397
:1053C400E003E003C003C003C001C001C001C00189
:1053D400C001000000000000E003E003E00300005F
:1053E40000000000000000003C1E3C1E3C1E3C1E51
:1053F4003C1E3C1E3C1E000000000000000000009B
:105404000000000000000000000000000000000098
:10541400000000000000000000000000CE01CE03E8
:10542400DE039E039C039C07FF3FFF7F3807380F72
:10543400780F780F780EFFFFFFFFF01EF01CE01CC2
:10544400E03CE03DE0390000000000000000000006
:10545400FC03FE0FEE1FE01EE01EE01EE01EE01F38
:10546400E00FE007F003FC01FE01FE01FE01FE0176
:10547400FE01FE01FE3DFC3FF00FE001E0010000F3
:1054840000000000033E07F78FE78EE79EE3BCE3CE
:10549400B8E7F8E7F0F7E03FC001FF03FF07F307C1
:1054A400F30FF31EF33CF338F3787FF03FE0000092
:1054B4000000000000000000E007F80F780F781FDC
:1054C400781F781F780FF00FE00F801FC37FC3FB96
:1054D400E7F3F7F1F7F0FFF07FF03EF87F7CFF3F52
:1054E400EF1F00000000000000000000E003E003E4
:1054F400E003E003E003C003C0010000000000007B
:105504000000000000000000000000000000000097
:105514000000000000000000000000000000000087
:105524003F007C00F001E001C003C0078007800752
:10553400800F000F000F000F000F000F000F800FEF
:1055440080078007C007C003E001F0017C003F0032
:105554000F000000007E001FC007C003E001F0013F
:10556400F000F000F8007800780078007800780007
:105574007800F800F000F000F001E001C003C0077B
:10558400001F007E00780000E003C003C001CE3994
:10559400FF3F7F3F20037003F807780F3C1F380656
:1055A40000000000000000000000000000000000F7
:1055B40000000000000000000000000000000000E7
:1055C4000000000000000000C001C001C001C001D3
:1055D400C001C001C001FFFFFFFFC001C001C00145
:1055E400C001C001C0010000000000000000000074
:1055F40000000000000000000000000000000000A7
:105604000000000000000000000000000000000096
:105614000000E003E003E003E003E001E001E00157
:10562400C001800300000000000000000000000032
:1056340000000000000000000000FE3FFE3F0000EC
:105644000000000000000000000000000000000056
:105654000000000000000000000000000000000046
:105664000000000000000000000000000000000036
:1056740000000000000000000000E003E003E0037D
:10568400E003000000000000000000000F000F0015
:105694001E001E003C003C0078007800F000F00082
:1056A400E001E001C003C00380078007000F000F82
:1056B400001E001E003C003C0078007800F0000052
:1056C400F007F80F7C1F3E3E1E3C1F7C1F7C0F78AA
:1056D4000F780F780F780F780F780F781F7C1F7C66
:1056E4001E3C3E3E7C1FF80FF00700000000000047
:1056F40000000000F000F007F03FF03FF001F0017F
:10570400F001F001F001F001F001F001F001F0010D
:10571400F001F001F001F001F001FF3FFF3F000054
:105724000000000000000000E00FF83F7C3C3C005B
:105734003E003E003E003C003C007C00F800F001CE
:10574400E003C0078007000F001E003E003CFE3F40
:10575400FE3F00000000000000000000F00FF81FF2
:105764007C1C3E003E003E003C003C00F800F00F74
:10577400F80F7C003E001E001E001E001E003E00AE
:105784007C1CF81FE01F0000000000000000000067
:105794007800F800F800F801F803F807F807780F24
:1057A400781E781E783C78787878FFFFFFFF7800C1
:1057B400780078007800780078000000000000008D
:1057C40000000000FC1FFC1FFC1F001E001E001E2A
:1057D400001E001EE01FF81FFC007C003E003E007F
:1057E4001E003E003E003C007C1CF81FE01F000031
:1057F4000000000000000000FC01FE078E0F001FE7
:10580400001E003E003C003CF83DFC3F3E7F1F7EF6
:105814000F3C0F3C0F3C0F3C0F3E1F1E3E1FFC0F66
:10582400F00300000000000000000000FF3FFF3F05
:10583400FF3F0F001E001E003C0038007800F000FF
:10584400F000E001E001C003C0038007800F800F77
:10585400000F001F001F00000000000000000000F7
:10586400F807FC0F3E1F1E1E1E3E1E3E1E1E3C1F42
:10587400F80FF007F80FFC1E3E3E1F3C1F7C0F7C08
:105884000F7C1F3C3E3FFC1FF0070000000000009F
:1058940000000000F007F80F7C1E3E3C1E3C1F7CFD
:1058A4001F7C1F7C1F7C1F3C3F3EFF1FEF071F0018
:1058B4001E001E003E003C00F838F03FE01F0000D0
:1058C40000000000000000000000000000000000D4
:1058D40000000000E003E003E003E0030000000038
:1058E40000000000000000000000E003E003E0030B
:1058F400E0030000000000000000000000000000C1
:105904000000000000000000E003E003E003E00307
:105914000000000000000000000000000000E003A0
:10592400E003E003E003E001E001E001C0038003E1
:1059340000000000000000000000000003000F0051
:105944003F00FC00F003C00F003F00FE003FC00F0B
:10595400F003FC003F000F00030000000000000003
:105964000000000000000000000000000000000033
:105974000000000000000000FFFFFFFF0000000027
:105984000000FFFFFFFF0000000000000000000017
:105994000000000000000000000000000000000003
:1059A4000000000000E000F8007E801FE007F8011E
:1059B4007E001F007E00F801E007801F007E00F8D3
:1059C40000E000000000000000000000F01FFC3FA9
:1059D4003E381F381F381E001E003C007800F000BF
:1059E400E001C003C003C007C007000000000000BE
:1059F400C007C007C007000000000000000000004E
:105A0400F803FE0F1E1F0F3E7F3CFF78EF79C7732C
:105A1400C7F38FF38FF38FF39FF39FF3FF73FF7B32
:105A2400F779003C1C1FFC0FF80300000000000085
:105A340000000000000000000000E003E003F007A5
:105A4400F007F007780F780F7C0E3C1E3C1E3E3C9E
:105A5400FE3FFF3F1F780F780FF007F007F00000BC
:105A64000000000000000000000000000000F83FFB
:105A7400FC3F3E3C1E3C1E3C1E3C3E3C7C3CF03FFE
:105A8400F83F7E3C1F3C1F3C0F3C0F3C1F3CFE3F3D
:105A9400F83F0000000000000000000000000000CB
:105AA4000000FF01FF07871F003E003C007C0078D8
:105AB4000078007800780078007C007C003E003F8D
:105AC400831FFF07FF01000000000000000000002A
