:020000040800F2
:1000000000500020A106000831060008370600084D
:100010003D060008430600084906000800000000ED
:100020000000000000000000000000004F06000873
:100030005B06000800000000670600087306000861
:10004000E9060008E9060008E9060008E9060008D4
:10005000E9060008E9060008E9060008E9060008C4
:10006000E9060008E9060008E9060008E9060008B4
:10007000E9060008E9060008E9060008E9060008A4
:10008000E9060008E9060008E9060008E906000894
:10009000E9060008E9060008E9060008E906000884
:1000A000E9060008E9060008E9060008E906000874
:1000B000E9060008E9060008E9060008E906000864
:1000C000E9060008E9060008E9060008E906000854
:1000D000E9060008E9060008E906000881060008AC
:1000E000E9060008E9060008E9060008000000002B
:1000F0000000000000000000000000000000000000
:0C01000000000000000000005FF808F1A3
:10010C0010B5054C237833B9044B13B10448AFF345
:10011C0000800123237010BD380000200000000077
:10012C00C434000808B5034B1BB103490348AFF3B3
:10013C00008008BD000000003C000020C434000812
:10014C0080B500AF00F0CCFA00F014F800F0EAF83B
:10015C0000F0BEF800F078F800F090F800F046F8E7
:10016C0002F018FD02F028FD014801F04DFBF9E703
:10017C00A800002080B590B000AF07F1180328222A
:10018C000021184603F090F93B1D00221A605A60BA
:10019C009A60DA601A610923BB614FF48033FB610A
:1001AC0001233B6300237B6307F11803184601F01E
:1001BC003BFB0346002B01D000F030F90F237B6092
:1001CC000123BB600023FB6000233B6100237B61A8
:1001DC003B1D0021184601F0A9FD0346002B01D060
:1001EC0000F01CF900BF4037BD4680BD80B500AFA4
:1001FC00124B134A1A60114B124A5A600F4B0022D1
:10020C009A600E4B0022DA600C4B4FF480421A615C
:10021C000A4B00225A61094B00229A61074B0022BB
:10022C00DA61064B00221A62044800F051FE0346C4
:10023C00002B01D000F0F2F800BF80BD540000206C
:10024C0000540040A086010080B500AF094B0A4A5B
:10025C001A60084B01225A60064B40F6C3129A6092
:10026C00044801F08FFA0346002B01D000F0D6F8B9
:10027C0000BF80BDA80000200030004080B500AF5A
:10028C00114B124A1A60104B4FF4E1325A600E4B6C
:10029C0000229A600C4B0022DA600B4B00221A6190
:1002AC00094B0C225A61084B00229A61064B002222
:1002BC00DA61054801F0D2FE0346002B01D000F0B4
:1002CC00ADF800BF80BD00BFB4000020004400406A
:1002DC0080B500AF114B124A1A60104B4FF4E1324B
:1002EC005A600E4B00229A600C4B0022DA600B4BCA
:1002FC0000221A61094B0C225A61084B00229A61A8
:10030C00064B0022DA61054801F0A8FE0346002BDB
:10031C0001D000F083F800BF80BD00BFF8000020C2
:10032C000048004080B588B000AF07F110030022F0
:10033C001A605A609A60DA60354B9B69344A43F014
:10034C0010039361324B9B6903F01003FB60FB6855
:10035C002F4B9B692E4A43F0200393612C4B9B69D6
:10036C0003F02003BB60BB68294B9B69284A43F010
:10037C0004039361264B9B6903F004037B607B6849
:10038C00234B9B69224A43F008039361204B9B69E2
:10039C0003F008033B603B6800224FF400511D48FA
:1003AC0000F07DFD00224FF4E0411B4800F077FD8A
:1003BC004FF400533B6101237B610023BB6102239B
:1003CC00FB6107F110031946124800F0CDFB4FF406
:1003DC00E0433B6101237B610023BB610123FB6193
:1003EC0007F1100319460C4800F0BEFB4FF4004314
:1003FC003B6100237B610123BB6107F110031946AC
:10040C00054800F0B1FB00BF2037BD4680BD00BFE2
:10041C000010024000100140000C014080B400AFFD
:10042C0072B600BFFEE7000080B485B000AF154B7C
:10043C009B69144A43F001039361124B9B6903F0CF
:10044C000103BB60BB680F4BDB690E4A43F0805362
:10045C00D3610C4BDB6903F080537B607B680A4BE8
:10046C005B68FB60FB6823F0E063FB60FB6843F0B8
:10047C000073FB60044AFB68536000BF1437BD4631
:10048C0080BC7047001002400000014080B588B06D
:10049C0000AF786007F1100300221A605A609A606E
:1004AC00DA607B681B68154A934223D1144B9B6915
:1004BC00134A43F008039361114B9B6903F0080343
:1004CC00FB60FB68C0233B6112237B610323FB6150
:1004DC0007F1100319460B4800F046FB084BDB698B
:1004EC00074A43F40013D361054BDB6903F4001393
:1004FC00BB60BB6800BF2037BD4680BD00540040C8
:10050C0000100240000C014080B58AB000AF78604A
:10051C0007F1180300221A605A609A60DA607B684F
:10052C001B683B4A934230D13A4BDB69394A43F45E
:10053C000033D361374BDB6903F400337B617B6998
:10054C00344B9B69334A43F004039361314B9B69F1
:10055C0003F004033B613B690423BB610223FB6191
:10056C0003237B6207F1180319462B4800F0FCFAB1
:10057C000823BB610023FB6100233B6207F11803D6
:10058C001946254800F0F0FA3EE07B681B68234AC8
:10059C00934239D11F4BDB691E4A43F48023D3614C
:1005AC001C4BDB6903F48023FB60FB68194B9B69D4
:1005BC00184A43F008039361164B9B6903F0080338
:1005CC00BB60BB684FF48063BB610223FB610323F8
:1005DC007B6207F118031946114800F0C5FA4FF475
:1005EC000063BB610023FB6100233B6207F118032E
:1005FC0019460B4800F0B8FA00220021272000F021
:10060C00CCF9272000F0E5F900BF2837BD4680BDA6
:10061C000044004000100240000801400048004027
:10062C00000C014080B400AFFEE780B400AFFEE7E1
:10063C0080B400AFFEE780B400AFFEE780B400AF3B
:10064C00FEE780B400AF00BFBD4680BC704780B4ED
:10065C0000AF00BFBD4680BC704780B400AF00BF88
:10066C00BD4680BC704780B500AF00F07FF800BF7E
:10067C0080BD000080B500AF024801F0FFFD00BF57
:10068C0080BD00BFF800002080B400AF00BFBD46A5
:10069C0080BC70470C480D490D4A002302E0D45829
:1006AC00C4500433C4188C42F9D30A4A0A4C0023B0
:1006BC0001E013600432A242FBD3FFF7E5FF02F026
:1006CC00CFFEFFF73DFD70470000002038000020F2
:1006DC00103600083800002060050020FEE70000FE
:1006EC0080B500AF084B1B68074A43F0100313603A
:1006FC00032000F047F90F2000F008F8FFF794FEF4
:10070C000023184680BD00BF0020024080B582B097
:10071C0000AF7860124B1A68124B1B7819464FF4D5
:10072C007A73B3FBF1F3B2FBF3F3184600F05FF905
:10073C000346002B01D001230EE07B680F2B0AD857
:10074C00002279684FF0FF3000F027F9064A7B68E9
:10075C001360002300E0012318460837BD4680BD16
:10076C0000000020080000200400002080B400AF2E
:10077C00054B1B781A46054B1B681344034A136040
:10078C0000BFBD4680BC7047080000203C01002023
:10079C0080B400AF024B1B681846BD4680BC704746
:1007AC003C01002080B584B000AF7860FFF7F0FF0B
:1007BC00B8607B68FB60FB68B3F1FF3F05D00A4B68
:1007CC001B781A46FB681344FB6000BFFFF7E0FF81
:1007DC000246BB68D31AFA689A42F7D800BF00BF2A
:1007EC001037BD4680BD00BF0800002080B485B026
:1007FC0000AF78607B6803F00703FB600C4BDB6891
:10080C00BB60BA684FF6FF031340BB60FB681A026B
:10081C00BB68134343F0BF6343F40033BB60044A2B
:10082C00BB68D36000BF1437BD4680BC704700BFA7
:10083C0000ED00E080B400AF044BDB681B0A03F052
:10084C0007031846BD4680BC704700BF00ED00E0B2
:10085C0080B483B000AF0346FB7197F90730002BCF
:10086C000BDBFB7903F01F02064997F907305B0994
:10087C00012000FA02F241F8232000BF0C37BD46DC
:10088C0080BC704700E100E080B483B000AF034649
:10089C003960FB7197F90730002B0ADB3B68DAB241
:1008AC000C4997F907301201D2B20B4483F800239C
:1008BC000AE03B68DAB20849FB7903F00F03043B0A
:1008CC001201D2B20B441A7600BF0C37BD4680BC65
:1008DC00704700BF00E100E000ED00E080B489B09B
:1008EC0000AFF860B9607A60FB6803F00703FB6146
:1008FC00FB69C3F10703042B28BF0423BB61FB690D
:10090C000433062B02D9FB69033B00E000237B6117
:10091C004FF0FF32BB6902FA03F3DA43BB681A40AB
:10092C007B699A404FF0FF317B6901FA03F3D9439D
:10093C007B680B40134318462437BD4680BC704778
:10094C0080B582B000AF78607B68013BB3F1807FEB
:10095C0001D301230FE00A4A7B68013B53600F214E
:10096C004FF0FF30FFF790FF054B00229A60044BCD
:10097C0007221A60002318460837BD4680BD00BF09
:10098C0010E000E080B582B000AF78607868FFF7C7
:10099C002DFF00BF0837BD4680BD80B586B000AFC7
:1009AC000346B9607A60FB7300237B61FFF742FF5B
:1009BC0078617A68B9687869FFF790FF024697F911
:1009CC000F3011461846FFF75FFF00BF1837BD46C2
:1009DC0080BD80B582B000AF0346FB7197F907303C
:1009EC001846FFF735FF00BF0837BD4680BD80B500
:1009FC0082B000AF78607868FFF7A2FF0346184614
:100A0C000837BD4680BD80B485B000AF7860002348
:100A1C00FB737B6893F82130022B08D07B6804228F
:100A2C009A637B68002283F82020012320E07B68F6
:100A3C001B681A687B681B6822F00E021A607B68C0
:100A4C001B681A687B681B6822F001021A607B68BD
:100A5C001A6C7B68DB6B012101FA02F25A607B682D
:100A6C00012283F821207B68002283F82020FB7B65
:100A7C0018461437BD4680BC7047000080B584B062
:100A8C0000AF78600023FB737B6893F82130022B56
:100A9C0005D07B6804229A630123FB7351E07B68C9
:100AAC001B681A687B681B6822F00E021A607B6850
:100ABC001B681A687B681B6822F001021A607B684D
:100ACC001B68224A934229D07B681B68204A9342B8
:100ADC0022D07B681B681F4A93421AD07B681B6824
:100AEC001D4A934212D07B681B681C4A93420AD061
:100AFC007B681B681A4A934202D14FF480130EE0B4
:100B0C004FF080730BE04FF4803308E04FF48053C8
:100B1C0005E04FF4807302E0102300E00123114A3A
:100B2C0053607B68012283F821207B68002283F8C4
:100B3C0020207B685B6B002B03D07B685B6B786839
:100B4C009847FB7B18461037BD4680BD0800024015
:100B5C001C00024030000240440002405800024099
:100B6C006C0002400000024080B48BB000AF786093
:100B7C00396000237B6200233B6269E101227B6ABE
:100B8C0002FA03F3FB613B681B68FA691340BB6113
:100B9C00BA69FB699A4240F058813B685B689A4A93
:100BAC0093425ED0984A934275D8984A934258D053
:100BBC00964A93426FD8964A934252D0944A9342A3
:100BCC0069D8944A93424CD0924A934263D8924A41
:100BDC00934246D0904A93425DD8122B2AD8122BBE
:100BEC0059D801A252F823F06F0C0008490C0008E8
:100BFC005B0C00089D0C0008A30C0008A30C00085B
:100C0C00A30C0008A30C0008A30C0008A30C0008FC
:100C1C00A30C0008A30C0008A30C0008A30C0008EC
:100C2C00A30C0008A30C0008A30C0008510C00082E
:100C3C00650C0008794A934213D02CE03B68DB68C2
:100C4C003B6229E03B68DB6804333B6224E03B6891
:100C5C00DB6808333B621FE03B68DB680C333B62AC
:100C6C001AE03B689B68002B02D104233B6213E023
:100C7C003B689B68012B05D108233B627B68FA69B2
:100C8C001A6109E008233B627B68FA695A6103E048
:100C9C0000233B6200E000BFBB69FF2B01D87B68DF
:100CAC0001E07B6804337B61BB69FF2B02D87B6A54
:100CBC009B0002E07B6A083B9B003B617B691A68E6
:100CCC000F213B6901FA03F3DB431A40396A3B6994
:100CDC0001FA03F31A437B691A603B685B6803F003
:100CEC008053002B00F0B1804D4B9B694C4A43F074
:100CFC00010393614A4B9B6903F00103BB60BB6822
:100D0C00484A7B6A9B08023352F82330FB607B6AAB
:100D1C0003F003039B000F2202FA03F3DB43FA6890
:100D2C001340FB607B68404A934213D07B683F4A78
:100D3C0093420DD07B683E4A934207D07B683D4A74
:100D4C00934201D1032306E0042304E0022302E0D2
:100D5C00012300E000237A6A02F003029200934020
:100D6C00FA681343FB602F497B6A9B080233FA68CD
:100D7C0041F823203B685B6803F48033002B06D0DA
:100D8C002D4B1A682C49BB6913430B6006E02A4BA8
:100D9C001A68BB69DB43284913400B603B685B68EE
:100DAC0003F40033002B06D0234B5A682249BB694D
:100DBC0013434B6006E0204B5A68BB69DB431E496A
:100DCC0013404B603B685B6803F48013002B06D028
:100DDC00194B9A681849BB6913438B6006E0164B94
:100DEC009A68BB69DB43144913408B603B685B68B2
:100DFC0003F40013002B21D00F4BDA680E49BB69AA
:100E0C001343CB6021E000BF000032100000311012
:100E1C000000221000002110000012100000111020
:100E2C00001002400000014000080140000C01408D
:100E3C000010014000140140000401400B4BDA6823
:100E4C00BB69DB4309491340CB607B6A01337B628E
:100E5C003B681A687B6A22FA03F3002B7FF48EAE90
:100E6C0000BF00BF2C37BD4680BC7047000401405A
:100E7C0080B485B000AF78600B467B807B689A6845
:100E8C007B881340002B02D00123FB7301E000236D
:100E9C00FB73FB7B18461437BD4680BC704780B48F
:100EAC0083B000AF78600B467B8013467B707B78F9
:100EBC00002B03D07A887B681A6103E07B881A04C4
:100ECC007B681A6100BF0C37BD4680BC70470000C0
:100EDC0080B584B000AF78607B68002B01D1012312
:100EEC002BE17B6893F83D30DBB2002B06D17B689D
:100EFC00002283F83C207868FFF7C8FA7B6824222C
:100F0C0083F83D207B681B681A687B681B6822F09D
:100F1C0001021A607B681B681A687B681B6842F4C4
:100F2C0000421A607B681B681A687B681B6822F495
:100F3C0000421A6001F04CF8F8607B685B68814AEB
:100F4C00934207D8FB68804A934294BF0123002345
:100F5C00DBB206E0FB687D4A934294BF0123002379
:100F6C00DBB2002B01D00123E7E0FB68784AA2FB3F
:100F7C0003239B0CBB607B681B685B6823F03F0101
:100F8C007B681B68BA680A435A607B681B681B6ADB
:100F9C0023F03F017B685B686A4A934202D8BB68C6
:100FAC00013309E0BB684FF4967202FB03F3694A04
:100FBC00A2FB03239B0901337A6812680B4313626B
:100FCC007B681B68DB6923F44F4222F0FF027B68CD
:100FDC005B685C498B4219D8FB68591E7B685B685F
:100FEC005B00B1FBF3F3591C40F6FC730B40002B78
:100FFC000AD0FB68591E7B685B685B00B1FBF3F39E
:10100C000133C3F30B0351E004234FE07B689B686F
:10101C00002B11D1FB68581E7B6859680B465B008E
:10102C000B44B0FBF3F30133C3F30B03002B0CBFE6
:10103C0001230023DBB212E0FB68581E7B68596861
:10104C000B469B000B4499000B44B0FBF3F30133AC
:10105C00C3F30B03002B0CBF01230023DBB2002BCB
:10106C0001D0012322E07B689B68002B0ED1FB682A
:10107C00581E7B6859680B465B000B44B0FBF3F3BE
:10108C000133C3F30B0343F400430FE0FB68581E1A
:10109C007B6859680B469B000B4499000B44B0FBD2
:1010AC00F3F30133C3F30B0343F44043796809684A
:1010BC001343CB617B681B681B6823F0C0017B6802
:1010CC00DA697B681B6A1A437B681B680A431A60DF
:1010DC007B681B689B6823F4034323F0FF037A6847
:1010EC0011697A68D26811437A6812680B4393606D
:1010FC007B681B68DB6823F0FF017B685A697B689F
:10110C009B691A437B681B680A43DA607B681B681F
:10111C001A687B681B6842F001021A607B68002227
:10112C001A647B68202283F83D207B6800221A63B6
:10113C007B68002283F83E20002318461037BD46FA
:10114C0080BD00BFA08601007F841E00FF083D000B
:10115C0083DE1B43D34D621080B588B002AFF860BC
:10116C00084611461A4603467B810B463B811346C3
:10117C00FB80FFF70DFB7861FB6893F83D30DBB229
:10118C00202B40F0D9807B690093192301226D49F3
:10119C00F86800F071F90346002B01D00223CCE073
:1011AC00FB6893F83C30012B01D10223C5E0FB68AE
:1011BC00012283F83C20FB681B681B6803F00103C9
:1011CC00012B07D0FB681B681A68FB681B6842F090
:1011DC0001021A60FB681B681A68FB681B6822F422
:1011EC0000621A60FB68212283F83D20FB684022D4
:1011FC0083F83E20FB6800221A64FB683A6A5A6244
:10120C00FB68BA8C5A85FB685B8D9AB2FB681A85B1
:10121C00FB684D4ADA62F8883A8979897B690193CF
:10122C00BB6A00930346F86800F090F80346002B65
:10123C0052D0012381E07A69B96AF86800F0F2F9BA
:10124C000346002B0DD0FB681B6C042B07D1FB68ED
:10125C001B681A68FB681B6842F400721A60012351
:10126C006BE0FB685B6A1A78FB681B681A61FB68A9
:10127C005B6A5A1CFB685A62FB681B8D013B9AB275
:10128C00FB681A85FB685B8D9BB2013B9AB2FB68CD
:10129C005A85FB681B685B6903F00403042B1BD1A4
:1012AC00FB681B8D002B17D0FB685B6A1A78FB68F8
:1012BC001B681A61FB685B6A5A1CFB685A62FB6804
:1012CC001B8D013B9AB2FB681A85FB685B8D9BB248
:1012DC00013B9AB2FB685A85FB681B8D002BAAD187
:1012EC007A69B96AF86800F0DEF90346002B0DD074
:1012FC00FB681B6C042B07D1FB681B681A68FB6826
:10130C001B6842F400721A60012316E0FB681B682C
:10131C001A68FB681B6842F400721A60FB68202292
:10132C0083F83D20FB68002283F83E20FB680022F6
:10133C0083F83C20002300E0022318461837BD46F2
:10134C0080BD00BF020010000000FFFF80B588B018
:10135C0002AFF860084611461A4603467B810B46DD
:10136C003B811346FB80FB681B681A68FB681B6893
:10137C0042F480721A607B6A00933B6A00224FF041
:10138C000111F86800F078F80346002B0DD0FB68CB
:10139C001B681B6803F48073B3F5807F03D1FB6873
:1013AC004FF400721A6403235FE07B89DBB21A46A8
:1013BC00FB681B6802F0FE021A617B6A3A6A2D49CF
:1013CC00F86800F0B0F80346002B01D001234CE084
:1013DC0000237B61FB681B685B697B61FB681B6896
:1013EC009B697B617B697A6A396AF86800F01AF943
:1013FC000346002B0DD0FB681B6C042B07D1FB683C
:10140C001B681A68FB681B6842F400721A6001239F
:10141C002BE0FB88012B05D13B89DAB2FB681B68FA
:10142C001A6121E03B891B0A9BB2DAB2FB681B688C
:10143C001A617A6A396AF86800F0F4F80346002BEE
:10144C000DD0FB681B6C042B07D1FB681B681A685A
:10145C00FB681B6842F400721A60012305E03B89AB
:10146C00DAB2FB681B681A61002318461837BD46B0
:10147C0080BD00BF0200010080B584B000AFF860F1
:10148C00B9603B601346FB7125E03B68B3F1FF3F4D
:10149C0021D0FFF77DF90246BB69D31A3A689A420C
:1014AC0002D33B68002B16D1FB6800221A63FB6841
:1014BC00202283F83D20FB68002283F83E20FB6845
:1014CC001B6C43F02002FB681A64FB68002283F853
:1014DC003C20012323E0BB681B0CDBB2012B0DD19C
:1014EC00FB681B685B69DA43BB6813409BB2002B3B
:1014FC000CBF01230023DBB21A460CE0FB681B680F
:10150C009B69DA43BB6813409BB2002B0CBF0123D1
:10151C000023DBB21A46FB799A42B6D00023184658
:10152C001037BD4680BD80B584B000AFF860B9609F
:10153C007A603B6051E0FB681B685B6903F4806375
:10154C00B3F5806F23D1FB681B681A68FB681B68B6
:10155C0042F400721A60FB681B686FF480625A6177
:10156C00FB6800221A63FB68202283F83D20FB688D
:10157C00002283F83E20FB681B6C43F00402FB68DE
:10158C001A64FB68002283F83C20012346E07B6848
:10159C00B3F1FF3F21D0FFF7FBF802463B68D31AAB
:1015AC007A689A4202D37B68002B16D1FB68002222
:1015BC001A63FB68202283F83D20FB68002283F825
:1015CC003E20FB681B6C43F02002FB681A64FB682E
:1015DC00002283F83C20012320E0BB681B0CDBB20B
:1015EC00012B0CD1FB681B685B69DA43BB681340A9
:1015FC009BB2002B14BF01230023DBB20BE0FB6872
:10160C001B689B69DA43BB6813409BB2002B14BF69
:10161C0001230023DBB2002B8DD100231846103799
:10162C00BD4680BD80B584B000AFF860B9607A600B
:10163C002DE0F86800F078F80346002B01D0012368
:10164C002DE0BB68B3F1FF3F21D0FFF7A1F80246B4
:10165C007B68D31ABA689A4202D3BB68002B16D1A6
:10166C00FB6800221A63FB68202283F83D20FB688C
:10167C00002283F83E20FB681B6C43F02002FB68C1
:10168C001A64FB68002283F83C20012307E0FB6806
:10169C001B685B6903F08003802BCAD100231846BA
:1016AC001037BD4680BD80B584B000AFF860B9601E
:1016BC007A602DE0F86800F037F80346002B01D073
:1016CC0001232DE0BB68B3F1FF3F21D0FFF760F899
:1016DC0002467B68D31ABA689A4202D3BB68002BC5
:1016EC0016D1FB6800221A63FB68202283F83D2088
:1016FC00FB68002283F83E20FB681B6C43F0200241
:10170C00FB681A64FB68002283F83C20012307E085
:10171C00FB681B685B6903F00403042BCAD100232C
:10172C0018461037BD4680BD80B483B000AF7860DA
:10173C007B681B685B6903F48063B3F5806F1BD116
:10174C007B681B686FF480625A617B6800221A63A5
:10175C007B68202283F83D207B68002283F83E20A2
:10176C007B681B6C43F004027B681A647B68002264
:10177C0083F83C20012300E0002318460C37BD46BB
:10178C0080BC704780B584B000AF78607B68002B5C
:10179C0001D1012334E07B681B684CF6CC421A6003
:1017AC007B681B6845F255521A607B681B687A6827
:1017BC0052685A607B681B687A6892689A60FEF778
:1017CC00E7FFF8600FE0FEF7E3FF0246FB68D31A71
:1017DC00272B08D97B681B68DB6803F00303002BFD
:1017EC0001D003230CE07B681B68DB6803F0030368
:1017FC00002BE8D17B681B684AF6AA221A600023EA
:10180C0018461037BD4680BD80B483B000AF7860F9
:10181C007B681B684AF6AA221A60002318460C370C
:10182C00BD4680BC7047000080B586B000AF7860C4
:10183C007B68002B01D1012372E27B681B6803F0EB
:10184C000103002B00F08780924B5B6803F00C03C4
:10185C00042B0CD08F4B5B6803F00C03082B12D1BC
:10186C008C4B5B6803F48033B3F5803F0BD1894B11
:10187C001B6803F40033002B6CD07B685B68002B77
:10188C0068D101234CE27B685B68B3F5803F06D1DD
:10189C00804B1B687F4A43F4803313602EE07B68D7
:1018AC005B68002B0CD17B4B1B687A4A23F480338A
:1018BC001360784B1B68774A23F4802313601DE078
:1018CC007B685B68B3F5A02F0CD1724B1B68714A17
:1018DC0043F4802313606F4B1B686E4A43F48033D0
:1018EC0013600BE06B4B1B686A4A23F48033136064
:1018FC00684B1B68674A23F4802313607B685B6822
:10190C00002B13D0FEF744FF386108E0FEF740FFD0
:10191C0002463B69D31A642B01D9032300E25D4BC9
:10192C001B6803F40033002BF0D014E0FEF730FFFB
:10193C00386108E0FEF72CFF02463B69D31A642B92
:10194C0001D90323ECE1534B1B6803F40033002B48
:10195C00F0D100E000BF7B681B6803F00203002B92
:10196C0063D04C4B5B6803F00C03002B0BD0494B42
:10197C005B6803F00C03082B1CD1464B5B6803F42B
:10198C008033002B16D1434B1B6803F00203002B52
:10199C0005D07B681B69012B01D00123C0E13D4BB5
:1019AC001B6823F0F8027B685B69DB003949134341
:1019BC000B603AE07B681B69002B20D0364B012270
:1019CC001A60FEF7E5FE386108E0FEF7E1FE02461C
:1019DC003B69D31A022B01D90323A1E12D4B1B68C0
:1019EC0003F00203002BF0D02A4B1B6823F0F80203
:1019FC007B685B69DB00274913430B6015E0264BC2
:101A0C0000221A60FEF7C4FE386108E0FEF7C0FE43
:101A1C0002463B69D31A022B01D9032380E11D4BEB
:101A2C001B6803F00203002BF0D17B681B6803F0EA
:101A3C000803002B3AD07B689B69002B19D0174BFD
:101A4C0001221A60FEF7A4FE386108E0FEF7A0FE42
:101A5C0002463B69D31A022B01D9032360E10D4BDB
:101A6C005B6A03F00203002BF0D0012000F0D8FADF
:101A7C001CE00A4B00221A60FEF78AFE38610FE068
:101A8C00FEF786FE02463B69D31A022B08D90323C4
:101A9C0046E100BF00100240000042428004424276
:101AAC00924B5B6A03F00203002BE9D17B681B6845
:101ABC0003F00403002B00F0A6800023FB758B4B76
:101ACC00DB6903F08053002B0DD1884BDB69874A0F
:101ADC0043F08053D361854BDB6903F08053BB60CB
:101AEC00BB680123FB75824B1B6803F48073002BCE
:101AFC0018D17F4B1B687E4A43F480731360FEF74A
:101B0C0047FE386108E0FEF743FE02463B69D31AF4
:101B1C00642B01D9032303E1754B1B6803F4807319
:101B2C00002BF0D07B68DB68012B06D16F4B1B6A56
:101B3C006E4A43F0010313622DE07B68DB68002BD7
:101B4C000CD16A4B1B6A694A23F001031362674B81
:101B5C001B6A664A23F0040313621CE07B68DB6893
:101B6C00052B0CD1614B1B6A604A43F004031362D2
:101B7C005E4B1B6A5D4A43F0010313620BE05B4B47
:101B8C001B6A5A4A23F001031362584B1B6A574ACB
:101B9C0023F0040313627B68DB68002B15D0FEF77F
:101BAC00F7FD38610AE0FEF7F3FD02463B69D31AF4
:101BBC0041F28832934201D90323B1E04B4B1B6AAB
:101BCC0003F00203002BEED014E0FEF7E1FD3861C8
:101BDC000AE0FEF7DDFD02463B69D31A41F288327A
:101BEC00934201D903239BE0404B1B6A03F0020391
:101BFC00002BEED1FB7D012B05D13C4BDB693B4A25
:101C0C0023F08053D3617B68DB69002B00F0878065
:101C1C00364B5B6803F00C03082B61D07B68DB69E7
:101C2C00022B46D1334B00221A60FEF7B1FD38610E
:101C3C0008E0FEF7ADFD02463B69D31A022B01D931
:101C4C0003236DE0294B1B6803F00073002BF0D1CC
:101C5C007B681B6AB3F5803F08D1244B5B6823F487
:101C6C0000327B689B68214913434B601F4B5B68B8
:101C7C0023F474127B68196A7B685B6A0B431B49FB
:101C8C0013434B601B4B01221A60FEF781FD386138
:101C9C0008E0FEF77DFD02463B69D31A022B01D901
:101CAC0003233DE0114B1B6803F00073002BF0D0B5
:101CBC0035E0104B00221A60FEF76AFD386108E02F
:101CCC00FEF766FD02463B69D31A022B01D90323AA
:101CDC0026E0064B1B6803F00073002BF0D11EE0CE
:101CEC007B68DB69012B07D1012319E0001002404E
:101CFC0000700040600042420B4B5B68FB60FB686D
:101D0C0003F480327B681B6A9A4206D1FB6803F4A9
:101D1C0070127B685B6A9A4201D0012300E00023B9
:101D2C0018461837BD4680BD0010024080B584B0FF
:101D3C0000AF786039607B68002B01D10123D0E0C3
:101D4C006A4B1B6803F007033A689A4210D9674B39
:101D5C001B6823F0070265493B6813430B60634B18
:101D6C001B6803F007033A689A4201D00123B8E0DC
:101D7C007B681B6803F00203002B20D07B681B6878
:101D8C0003F00403002B05D0594B5B68584A43F40D
:101D9C00E06353607B681B6803F00803002B05D0DD
:101DAC00534B5B68524A43F460535360504B5B682F
:101DBC0023F0F0027B689B684D4913434B607B68B2
:101DCC001B6803F00103002B40D07B685B68012B80
:101DDC0007D1474B1B6803F40033002B15D10123AB
:101DEC007FE07B685B68022B07D1414B1B6803F0DB
:101DFC000073002B09D1012373E03D4B1B6803F0EA
:101E0C000203002B01D101236BE0394B5B6823F0FB
:101E1C0003027B685B68364913434B60FEF7B8FCE2
:101E2C00F8600AE0FEF7B4FC0246FB68D31A41F2F4
:101E3C008832934201D9032353E02D4B5B6803F0A6
:101E4C000C027B685B689B009A42EBD1274B1B68AA
:101E5C0003F007033A689A4210D2244B1B6823F014
:101E6C00070222493B6813430B60204B1B6803F0AD
:101E7C0007033A689A4201D0012332E07B681B6861
:101E8C0003F00403002B08D0194B5B6823F4E062C9
:101E9C007B68DB68164913434B607B681B6803F057
:101EAC000803002B09D0124B5B6823F460527B684B
:101EBC001B69DB000E4913434B6000F021F802460E
:101ECC000B4B5B681B0903F00F030A49CB5C22FA2E
:101EDC0003F3094A1360094B1B681846FEF716FCFE
:101EEC00002318461037BD4680BD00BF00200240BD
:101EFC0000100240F0350008000000200400002013
:101F0C0090B48AB000AF294B3C1D0FCB84E80F0076
:101F1C0040F201233B800023FB610023BB610023C3
:101F2C007B6200237B6100233B62214B5B68FB617E
:101F3C00FB6903F00C03042B02D0082B03D02BE01D
:101F4C001C4B3B622BE0FB699B0C03F00F0328330B
:101F5C003B4413F8243C7B61FB6903F48033002B76
:101F6C0012D0134B5B685B0C03F0010328333B442A
:101F7C0013F8283CBB617B690E4A03FB02F2BB6978
:101F8C00B2FBF3F37B6204E07B690B4A02FB03F3C5
:101F9C007B627B6A3B6202E0064B3B6200BF3B6AA2
:101FAC0018462837BD4690BC704700BFDC3400088B
:101FBC000010024000127A0000093D0080B400AF0E
:101FCC00024B1B681846BD4680BC704700000020C1
:101FDC0080B500AFFFF7F2FF0246054B5B681B0AAA
:101FEC0003F007030349CB5C22FA03F3184680BDC8
:101FFC00001002400036000880B500AFFFF7DEFF8E
:10200C000246054B5B68DB0A03F007030349CB5C14
:10201C0022FA03F3184680BD001002400036000877
:10202C0080B485B000AF78600A4B1B680A4AA2FBEB
:10203C0003235B0A7A6802FB03F3FB6000BFFB68B7
:10204C005A1EFA60002BF9D100BF00BF1437BD46F1
:10205C0080BC704700000020D34D621080B582B068
:10206C0000AF78607B68002B01D101233FE07B68D7
:10207C0093F83D30DBB2002B06D17B68002283F84D
:10208C003C207868FEF740FA7B68242283F83D20D8
:10209C007B681B68DA687B681B6822F40052DA6084
:1020AC00786800F085FC7B681B681A697B681B6884
:1020BC0022F490421A617B681B685A697B681B6822
:1020CC0022F02A025A617B681B68DA687B681B68FD
:1020DC0042F40052DA607B6800221A647B6820228A
:1020EC0083F83D207B68202283F83E20002318468D
:1020FC000837BD4680BD80B58AB002AFF860B960C4
:10210C003B601346FB8000237B61FB6893F83D30FA
:10211C00DBB2202B7CD1BB68002B02D0FB88002BC0
:10212C0001D1012375E0FB6893F83C30012B01D100
:10213C0002236EE0FB68012283F83C20FB6800223E
:10214C001A64FB68212283F83D20FEF721FB78619D
:10215C00FB68FA889A84FB68FA88DA84FB689B68C7
:10216C00B3F5805F08D1FB681B69002B04D10023F9
:10217C00FB61BB68BB6103E0BB68FB610023BB6117
:10218C00FB68002283F83C202AE03B6800937B69C3
:10219C0000228021F86800F038FA0346002B01D0A9
:1021AC00032336E0FB69002B0BD1BB691B881A4655
:1021BC00FB681B68C2F308025A60BB690233BB613F
:1021CC0007E0FB691A78FB681B685A60FB690133EE
:1021DC00FB61FB68DB8C9BB2013B9AB2FB68DA8437
:1021EC00FB68DB8C9BB2002BCFD13B6800937B69E7
:1021FC0000224021F86800F008FA0346002B01D0B9
:10220C00032306E0FB68202283F83D20002300E036
:10221C00022318462037BD4680BD80B584B000AF80
:10222C00F860B9601346FB80FB6893F83E30DBB274
:10223C00202B1DD1BB68002B02D0FB88002B01D1B9
:10224C00012316E0FB6893F83C30012B01D10223EB
:10225C000FE0FB68012283F83C20FB6800221A6324
:10226C00FB881A46B968F86800F019FA034600E0D2
:10227C00022318461037BD4680BD000080B58AB0D9
:10228C0000AF78607B681B681B687B627B681B688F
:10229C00DB683B627B681B685B69FB610023BB618D
:1022AC0000237B617B6A03F00F03BB61BB69002BCE
:1022BC000DD17B6A03F02003002B08D03B6A03F09E
:1022CC002003002B03D0786800F0C9FA7BE1BB69CE
:1022DC00002B00F0B180FB6903F00103002B05D14A
:1022EC003B6A03F49073002B00F0A6807B6A03F02A
:1022FC000103002B0AD03B6A03F48073002B05D03A
:10230C007B681B6C43F001027B681A647B6A03F0E8
:10231C000403002B0AD0FB6903F00103002B05D04A
:10232C007B681B6C43F002027B681A647B6A03F0C7
:10233C000203002B0AD0FB6903F00103002B05D02C
:10234C007B681B6C43F004027B681A647B6A03F0A5
:10235C000803002B0FD03B6A03F02003002B04D1A1
:10236C00FB6903F00103002B05D07B681B6C43F069
:10237C0008027B681A647B681B6C002B00F01E81C2
:10238C007B6A03F02003002B07D03B6A03F0200389
:10239C00002B02D0786800F062FA7B681B685B69DE
:1023AC0003F04003002B14BF01230023DBB27B613D
:1023BC007B681B6C03F00803002B02D17B69002B9C
:1023CC0031D0786800F0A4F97B681B685B6903F076
:1023DC004003002B23D07B681B685A697B681B6801
:1023EC0022F040025A617B689B6B002B13D07B68F8
:1023FC009B6B764A5A637B689B6B1846FEF73EFBD9
:10240C000346002B16D07B689B6B5B6B7A68926BD8
:10241C00104698470EE0786800F0E3F80AE0786818
:10242C0000F0DFF806E0786800F0DBF87B6800224B
:10243C001A64C3E000BFC1E07B681B6B012B40F04A
:10244C00A1807B6A03F01003002B00F09B803B6A99
:10245C0003F01003002B00F095800023FB607B68D9
:10246C001B681B68FB607B681B685B68FB60FB6818
:10247C007B681B685B6903F04003002B4ED07B68C4
:10248C009B6B1B685B683B823B8A002B00F098803F
:10249C007B689B8D3A8A9A4280F092807B683A8A5C
:1024AC00DA857B689B6B9B69202B2BD07B681B6828
:1024BC00DA687B681B6822F48072DA607B681B68C0
:1024CC005A697B681B6822F001025A617B681B68A1
:1024DC005A697B681B6822F040025A617B68202293
:1024EC0083F83E207B6800221A637B681B68DA68DD
:1024FC007B681B6822F01002DA607B689B6B1846C5
:10250C00FEF781FA7B689A8D7B68DB8D9BB2D31AC0
:10251C009BB21946786800F06DF851E07B689A8D93
:10252C007B68DB8D9BB2D31A7B827B68DB8D9BB285
:10253C00002B47D07B8A002B44D07B681B68DA6861
:10254C007B681B6822F49072DA607B681B685A699E
:10255C007B681B6822F001025A617B68202283F899
:10256C003E207B6800221A637B681B68DA687B68F4
:10257C001B6822F01002DA607B8A1946786800F03A
:10258C0039F81FE07B6A03F08003002B08D03B6A0C
:10259C0003F08003002B03D0786800F0F9F812E008
:1025AC007B6A03F04003002B0DD03B6A03F0400321
:1025BC00002B08D0786800F03AF904E000BF02E084
:1025CC0000BF00E000BF2837BD4680BD752700085E
:1025DC0080B483B000AF786000BF0C37BD4680BCC0
:1025EC00704780B483B000AF786000BF0C37BD4635
:1025FC0080BC704780B483B000AF78600B467B80A2
:10260C0000BF0C37BD4680BC704780B584B000AFAE
:10261C00F860B9603B601346FB712CE0BB69B3F109
:10262C00FF3F28D0BB69002B07D0FEF7B1F802465C
:10263C003B68D31ABA699A421DD2FB681B68DA68E8
:10264C00FB681B6822F4D072DA60FB681B685A695D
:10265C00FB681B6822F001025A61FB68202283F898
:10266C003D20FB68202283F83E20FB68002283F883
:10267C003C2003230FE0FB681B681A68BB681340FF
:10268C00BA689A420CBF01230023DBB21A46FB79CD
:10269C009A42C3D0002318461037BD4680BD80B483
:1026AC0085B000AFF860B9601346FB80FB68BA6870
:1026BC009A62FB68FA889A85FB68FA88DA85FB6867
:1026CC0000221A64FB68222283F83E20FB68002259
:1026DC0083F83C20FB681B68DA68FB681B6842F4D3
:1026EC008072DA60FB681B685A69FB681B6842F0F1
:1026FC0001025A61FB681B68DA68FB681B6842F0D0
:10270C002002DA60002318461437BD4680BC70479F
:10271C0080B483B000AF78607B681B68DA687B6834
:10272C001B6822F49072DA607B681B685A697B68BC
:10273C001B6822F001025A617B681B6B012B07D1CD
:10274C007B681B68DA687B681B6822F01002DA6011
:10275C007B68202283F83E207B6800221A6300BF2E
:10276C000C37BD4680BC704780B584B000AF786034
:10277C007B685B6AFB60FB680022DA85FB680022E1
:10278C00DA84F868FFF72DFF00BF1037BD4680BD17
:10279C0080B485B000AF78607B6893F83D30DBB2D5
:1027AC00212B3ED17B689B68B3F5805F14D17B688D
:1027BC001B69002B10D17B681B6AFB60FB681B88B4
:1027CC001A467B681B68C2F308025A607B681B6A56
:1027DC009A1C7B681A6208E07B681B6A591C7A6831
:1027EC0011621A787B681B685A607B68DB8C9BB221
:1027FC00013B9BB27A681946D184002B0FD17B68C0
:10280C001B68DA687B681B6822F08002DA607B68E0
:10281C001B68DA687B681B6842F04002DA600023B0
:10282C0000E0022318461437BD4680BC704780B5C3
:10283C0082B000AF78607B681B68DA687B681B68C5
:10284C0022F04002DA607B68202283F83D20786811
:10285C00FFF7BEFE002318460837BD4680BD80B585
:10286C0086B000AF78607B6893F83E30DBB2222BE9
:10287C0040F099807B689B68B3F5805F17D17B68CB
:10288C001B69002B13D100237B617B689B6A3B6126
:10289C007B681B685B689BB2C3F308039AB23B6905
:1028AC001A807B689B6A9A1C7B689A6226E07B681C
:1028BC009B6A7B6100233B617B689B68B3F5805FFF
:1028CC0007D07B689B68002B0AD17B681B69002BA7
:1028DC0006D17B681B685B68DAB27B691A7008E00A
:1028EC007B681B685B68DBB203F07F03DAB27B6941
:1028FC001A707B689B6A5A1C7B689A627B68DB8DBA
:10290C009BB2013B9BB27A681946D185002B48D10A
:10291C007B681B68DA687B681B6822F02002DA602F
:10292C007B681B68DA687B681B6822F48072DA604B
:10293C007B681B685A697B681B6822F001025A612C
:10294C007B68202283F83E207B681B6B012B23D1F4
:10295C007B6800221A637B681B68DA687B681B68DB
:10296C0022F01002DA607B681B681B6803F010030E
:10297C00102B0AD10023FB607B681B681B68FB6073
:10298C007B681B685B68FB60FB687B689B8D1946EA
:10299C007868FFF72FFE02E0786800F00DFC00234A
:1029AC0002E0002300E0022318461837BD4680BD24
:1029BC0080B584B000AF78607B681B681B6923F41A
:1029CC0040517B68DA687B681B680A431A617B6834
:1029DC009A687B681B691A437B685B691343BB600D
:1029EC007B681B68DB6823F4B05323F00C037A6814
:1029FC001268B9680B43D3607B681B685B6923F46E
:102A0C0040717B689A697B681B680A435A617B68D2
:102A1C001B682C4A934203D1FFF7EEFAF86002E0F0
:102A2C00FFF7D6FAF860FA6813469B0013449A0035
:102A3C001A447B685B689B00B2FBF3F3224AA2FB4F
:102A4C0003235B091901FA6813469B0013449A008F
:102A5C001A447B685B689B00B2FBF3F21A4BA3FB36
:102A6C0002035B09642000FB03F3D31A1B0132330E
:102A7C00154AA2FB03235B0903F0F0031944FA681F
:102A8C0013469B0013449A001A447B685B689B00B6
:102A9C00B2FBF3F20C4BA3FB02035B09642000FBBB
:102AAC0003F3D31A1B013233074AA2FB03235B093E
:102ABC0003F00F027B681B680A449A6000BF103752
:102ACC00BD4680BD003801401F85EB5180B400AF7E
:102ADC00144BDB68134A23F08073D360114BDB6813
:102AEC00104A43F08073D3600F4B1B680E4A23F0DF
:102AFC00010313600C4B1B680B4A43F0010313607A
:102B0C00094B00225A6000BF00BF00BF064B5B6838
:102B1C00002B01D0002300E001231846BD4680BCE9
:102B2C00704700BFF0ED00E0001000E080B584B00D
:102B3C0000AF7860FDF72CFEF860FA687B689A426B
:102B4C0005D9FDF725FE02467B68D31A04E0FA6826
:102B5C007B68D31AA3F5807318461037BD4680BD29
:102B6C0080B582B000AF786008E0642301227968F8
:102B7C000748FFF7C0FA7B6801337B607B681B78E2
:102B8C00002BF2D100BF00BF0837BD4680BD00BF8F
:102B9C00B400002080B500AFFFF798FF00F0A2FB57
:102BAC0000F012FA00F072FB0248FFF7D9FF00BFE9
:102BBC0080BD00BFEC34000880B584B000AF0023AA
:102BCC00BB600023BB81FF23FB7300237B60164B90
:102BDC001B681846FFF7AAFF0346132B20D907F1F1
:102BEC000803184600F014FA07F10803184600F021
:102BFC0077FA0346FB7346233B713B7A7B717B7AF6
:102C0C00BB71FB7BFB71391DC82304220748FFF7FE
:102C1C0072FA00F00DF8FDF7BBFD0346024A136093
:102C2C0000BF1037BD4680BD40010020F8000020D9
:102C3C0080B500AF814B1B685B7803F01003DBB2EF
:102C4C00002B09D17E48FFF78BFF01224FF4005176
:102C5C007C48FEF724F9EFE0784B1B685B7803F0B7
:102C6C004003DBB2002B09D17748FFF779FF012233
:102C7C004FF400517348FEF712F9DDE06F4B1B68FF
:102C8C005B7803F02003DBB2002B09D16F48FFF710
:102C9C0067FF01224FF400516A48FEF700F9CBE0C0
:102CAC00664B1B685B7823F07F03DBB2002B09D1EA
:102CBC006748FFF755FF01224FF400516148FEF7BA
:102CCC00EEF8B9E05D4B1B681B7803F00403DBB234
:102CDC00002B09D15F48FFF743FF01224FF400514D
:102CEC005848FEF7DCF8A7E0544B1B681B7803F040
:102CFC000103DBB2002B09D15748FFF731FF01224A
:102D0C004FF400514F48FEF7CAF895E04B4B1B6847
:102D1C001B7803F00803DBB2002B09D14F48FFF7F7
:102D2C001FFF01224FF400514648FEF7B8F883E02C
:102D3C00424B1B681B7803F00203DBB2002B09D15A
:102D4C004748FFF70DFF01224FF400513D48FEF7B5
:102D5C00A6F871E0394B1B685B7803F00103DBB21A
:102D6C00002B09D13F48FFF7FBFE01224FF4005125
:102D7C003448FEF794F85FE0304B1B685B7803F047
:102D8C000803DBB2002B09D13748FFF7E9FE01221B
:102D9C004FF400512B48FEF782F84DE0274B1B688F
:102DAC001B7803F02003DBB2002B09D12F48FFF76F
:102DBC00D7FE01224FF400512248FEF770F83BE099
:102DCC001E4B1B681B7823F07F03DBB2002B09D151
:102DDC002748FFF7C5FE01224FF400511948FEF7B2
:102DEC005EF829E0154B1B681B7803F01003DBB26F
:102DFC00002B09D11F48FFF7B3FE01224FF40051FD
:102E0C001048FEF74CF817E00C4B1B681B7803F0CE
:102E1C004003DBB2002B09D11748FFF7A1FE0122BA
:102E2C004FF400510748FEF73AF805E000224FF442
:102E3C0000510448FEF733F800BF80BD4401002068
:102E4C00FC340008001001400C3500081C3500084B
:102E5C003035000840350008503500086035000852
:102E6C00703500088035000894350008A835000836
:102E7C00B8350008CC350008E035000880B584B0C2
:102E8C0000AF78600D4B5B68FB60FFF797F803466B
:102E9C000B4AA2FB03239B0C7A6802FB03F37B60B7
:102EAC0000BF064B5A68FB68D21A7B689A42F8D36B
:102EBC0000BF00BF1037BD4680BD00BF001000E052
:102ECC0083DE1B4380B586B000AF78600023FB75B2
:102EDC000023FB7301224FF480512248FDF7DFFFE2
:102EEC0000233B6133E07B68DBB203F00103DBB210
:102EFC001A464FF480411B48FDF7D1FF0A20FFF71B
:102F0C00BDFF00224FF480511648FDF7C8FF0A2080
:102F1C00FFF7B4FF4FF400411248FDF7A9FF034639
:102F2C00FB73FB7D5B08DBB25AB2FB7BDB015BB254
:102F3C0013435BB2FB7501224FF480510948FDF736
:102F4C00AEFF7B685B087B603B6901333B613B698F
:102F5C00072BC8D91420FFF791FFFB7D18461837B3
:102F6C00BD4680BD000C014080B584B000AF7860D8
:102F7C000B46FB7000224FF400511248FDF78FFFF7
:102F8C001020FFF77BFF0023FB6009E0FB687A68E9
:102F9C0013441B781846FFF795FFFB680133FB6061
:102FAC00FB78FA689A42F1DB1020FFF767FF0122E9
:102FBC004FF400510348FDF772FF00BF1037BD46B8
:102FCC0080BD00BF000C014080B500AF05210C484E
:102FDC00FFF7CAFF05210A48FFF7C6FF052108487D
:102FEC00FFF7C2FF05210748FFF7BEFF092106487E
:102FFC00FFF7BAFF09210548FFF7B6FF00BF80BDF8
:10300C000C000020140000201C00002028000020D0
:10301C0090B585B000AF78608023FB7300224FF42D
:10302C0000512E48FDF73BFF0120FFF74BFF4220DC
:10303C00FFF748FF0346FB730020FFF743FF002018
:10304C00FFF740FF03461A467B681A707B685C1CCE
:10305C000020FFF737FF03462370FB7B732B05D053
:10306C00FB7B232B02D0FB7B532B1BD17B689C1C43
:10307C000020FFF727FF034623707B68DC1C002031
:10308C00FFF720FF034623707B681C1D0020FFF711
:10309C0019FF034623707B685C1D0020FFF712FFAD
:1030AC0003462370FB7B122B0DD17B689C1C0020EC
:1030BC00FFF708FF034623707B68DC1C0020FFF73A
:1030CC0001FF0346237001224FF400510348FDF722
:1030DC00E6FE00BF1437BD4690BD00BF000C01409A
:1030EC0080B485B000AF7860FF23FB737B68053339
:1030FC001B78C82B04D9FB7B23F00103FB730DE079
:10310C007B6805331B78312B04D8FB7B23F002033F
:10311C00FB7303E0FB7B43F00303FB737B6804331B
:10312C001B78C82B04D9FB7B23F00403FB730DE045
:10313C007B6804331B78312B04D8FB7B23F008030A
:10314C00FB7303E0FB7B43F00C03FB737B680333E3
:10315C001B78C82B04D9FB7B23F01003FB730DE009
:10316C007B6803331B78312B04D8FB7B23F02003C3
:10317C00FB7303E0FB7B43F03003FB737B68023390
:10318C001B78C82B04D9FB7B23F04003FB730DE0A9
:10319C007B6802331B78312B04D8FB7B03F07F0355
:1031AC00FB7303E0FB7B63F03F03FB73FB7B184675
:1031BC001437BD4680BC704780B582B000AF7860D4
:1031CC00786800F005F800BF0837BD4680BD0000E8
:1031DC0080B582B000AF78607B681A68244B1B689E
:1031EC001B689A423FD1234B1B78462B06D1224BAE
:1031FC0001221A70214B00221A702DE01E4B1B78F5
:10320C00002B25D01D4B1B785A1CD1B21B4A1170B8
:10321C001A46184B19781A4B9954184B1B78022BD9
:10322C001AD9174B5B781B021AB2154B1B781BB2C1
:10323C0013431BB29AB2134B1A80114B9A78124B50
:10324C001A700E4B00221A700B4B00221A7003E0FE
:10325C000C4B4FF6FF721A80054B1B680122054977
:10326C001846FEF7DAFF00BF0837BD4680BD00BF29
:10327C004C0100205001002051010020520100207F
:10328C0054010020320000203400002080B400AF34
:10329C00044B054A1A60054B054A1A6000BFBD462F
:1032AC0080BC7047440100203200002048010020FF
:1032BC003400002080B586B004AF0346FB710A23AE
:1032CC00029301230193FB1D00930123002278211B
:1032DC000348FDF741FF00BF0837BD4680BD00BF66
:1032EC005400002080B500AF6420FDF75BFAAE20DF
:1032FC00FFF7E0FF2020FFF7DDFF1020FFF7DAFFDC
:10330C00B020FFF7D7FFC820FFF7D4FF0020FFF74E
:10331C00D1FF1020FFF7CEFF4020FFF7CBFF81201D
:10332C00FFF7C8FFFF20FFF7C5FFA120FFF7C2FF83
:10333C00A620FFF7BFFFA820FFF7BCFF3F20FFF739
:10334C00B9FFA420FFF7B6FFD320FFF7B3FF00208F
:10335C00FFF7B0FFD520FFF7ADFFF020FFF7AAFF76
:10336C00D920FFF7A7FF2220FFF7A4FFDA20FFF7F1
:10337C00A1FF1220FFF79EFFDB20FFF79BFF202011
:10338C00FFF798FF8D20FFF795FF1420FFF792FFB2
:10339C00AF20FFF78FFF002000F010F800F030F89E
:1033AC00054B00221A80044B00225A80024B01224A
:1033BC005A710123184680BD5805002080B485B091
:1033CC0000AF0346FB710023FB600DE0FB79002B83
:1033DC0001D1002100E0FF21084AFB6813440A4692
:1033EC001A70FB680133FB60FB68B3F5806FEDD39B
:1033FC0000BF00BF1437BD4680BC70475801002089
:10340C0080B586B004AF0023FB711DE0FB79503B07
:10341C00DBB21846FFF74EFF0020FFF74BFF1020E2
:10342C00FFF748FFFB79DB010B4A1344642202923D
:10343C008022019200930123402278210748FDF756
:10344C008BFEFB790133FB71FB79072BDED900BFB7
:10345C0000BF0837BD4680BD580100205400002035
:10346C0070B500260C4D0D4C641BA410A64209D15E
:10347C0000F022F800260A4D0A4C641BA410A64248
:10348C0005D170BD55F8043B98470136EEE755F869
:10349C00043B98470136F2E7083600080836000866
:1034AC00083600080C36000803460244934200D14B
:1034BC00704703F8011BF9E7F8B500BFF8BC08BC6E
:1034CC009E467047F8B500BFF8BC08BC9E467047D6
:1034DC0002030405060708090A0B0C0D0E0F101049
:1034EC004D61696E20496E697421200A000000004C
:1034FC005570206973207072657373210A00000087
:10350C00446F776E206973207072657373210A00A3
:10351C005269676874206973207072657373210A2D
:10352C00000000004C65667420697320707265732E
:10353C0073210A004C3120697320707265737321FA
:10354C000A0000004C32206973207072657373217D
:10355C000A00000052312069732070726573732168
:10356C000A00000052322069732070726573732157
:10357C000A00000053656C656374206973207072D7
:10358C00657373210A0000005374617274206973AF
:10359C00207072657373210A0000000054726F6E04
:1035AC00206973207072657373210A0056756F6EF3
:1035BC0067206973207072657373210A0000000024
:1035CC0054616D67696163206973207072657373F0
:1035DC00210A000058206973207072657373210AE8
:1035EC0000000000000000000000000001020304C5
:0C35FC000607080900000000010203049B
:043608003101000884
:04360C000D010008A4
:103610000024F4001000000001000000014200003E
:10362000000000000143000100000000014400010F
:103630000300000000000000014300005A5A5A5ADB
:083640005A00FFFFFF0000002B
:04000005080006A148
:00000001FF
